{"_format":"hh-sol-artifact-1","contractName":"Lottery","sourceName":"contracts/Lottery.sol","abi":[{"inputs":[{"internalType":"address","name":"_priceFeedAddress","type":"address"},{"internalType":"address","name":"_vrfCoordinator","type":"address"},{"internalType":"address","name":"_link","type":"address"},{"internalType":"uint256","name":"_fee","type":"uint256"},{"internalType":"bytes32","name":"_keyhash","type":"bytes32"}],"stateMutability":"nonpayable","type":"constructor"},{"anonymous":false,"inputs":[{"indexed":false,"internalType":"bytes32","name":"requestId","type":"bytes32"}],"name":"PickingWinner","type":"event"},{"anonymous":false,"inputs":[],"name":"PlayerEntered","type":"event"},{"anonymous":false,"inputs":[{"indexed":false,"internalType":"string","name":"state","type":"string"}],"name":"StateChange","type":"event"},{"inputs":[],"name":"emitEvent","outputs":[],"stateMutability":"nonpayable","type":"function"},{"inputs":[],"name":"endLottery","outputs":[],"stateMutability":"nonpayable","type":"function"},{"inputs":[],"name":"enterLottery","outputs":[],"stateMutability":"payable","type":"function"},{"inputs":[],"name":"getParticipantsLength","outputs":[{"internalType":"uint256","name":"","type":"uint256"}],"stateMutability":"pure","type":"function"},{"inputs":[],"name":"lastWinner","outputs":[{"internalType":"address","name":"","type":"address"}],"stateMutability":"view","type":"function"},{"inputs":[{"internalType":"uint256","name":"","type":"uint256"}],"name":"participants","outputs":[{"internalType":"address","name":"","type":"address"}],"stateMutability":"view","type":"function"},{"inputs":[],"name":"randomResult","outputs":[{"internalType":"uint256","name":"","type":"uint256"}],"stateMutability":"view","type":"function"},{"inputs":[{"internalType":"bytes32","name":"requestId","type":"bytes32"},{"internalType":"uint256","name":"randomness","type":"uint256"}],"name":"rawFulfillRandomness","outputs":[],"stateMutability":"nonpayable","type":"function"},{"inputs":[],"name":"startLottery","outputs":[],"stateMutability":"nonpayable","type":"function"},{"inputs":[],"name":"state","outputs":[{"internalType":"enum Lottery.LOTTERY_STATE","name":"","type":"uint8"}],"stateMutability":"view","type":"function"}],"bytecode":"0x60c06040526001600660146101000a81548160ff021916908360028111156200002d576200002c62000246565b5b02179055503480156200003f57600080fd5b5060405162001f2638038062001f26833981810160405281019062000065919062000176565b83838173ffffffffffffffffffffffffffffffffffffffff1660a08173ffffffffffffffffffffffffffffffffffffffff1660601b815250508073ffffffffffffffffffffffffffffffffffffffff1660808173ffffffffffffffffffffffffffffffffffffffff1660601b81525050505084600160006101000a81548173ffffffffffffffffffffffffffffffffffffffff021916908373ffffffffffffffffffffffffffffffffffffffff16021790555080600281905550816003819055505050505050620002c8565b60008151905062000142816200027a565b92915050565b600081519050620001598162000294565b92915050565b6000815190506200017081620002ae565b92915050565b600080600080600060a0868803121562000195576200019462000275565b5b6000620001a58882890162000131565b9550506020620001b88882890162000131565b9450506040620001cb8882890162000131565b9350506060620001de888289016200015f565b9250506080620001f18882890162000148565b9150509295509295909350565b60006200020b826200021c565b9050919050565b6000819050919050565b600073ffffffffffffffffffffffffffffffffffffffff82169050919050565b6000819050919050565b7f4e487b7100000000000000000000000000000000000000000000000000000000600052602160045260246000fd5b600080fd5b6200028581620001fe565b81146200029157600080fd5b50565b6200029f8162000212565b8114620002ab57600080fd5b50565b620002b9816200023c565b8114620002c557600080fd5b50565b60805160601c60a05160601c611c2462000302600039600081816105bd015261082301526000818161020501526107e70152611c246000f3fe6080604052600436106100915760003560e01c80637b0cb839116100595780637b0cb8391461015757806394985ddd1461016e578063c19d93fb14610197578063c1af5785146101c2578063fe188184146101cc57610091565b80631593a8c714610096578063160344e2146100ad57806335c1d349146100c457806342619f661461010157806376ab5af61461012c575b600080fd5b3480156100a257600080fd5b506100ab6101f7565b005b3480156100b957600080fd5b506100c2610462565b005b3480156100d057600080fd5b506100eb60048036038101906100e69190610f40565b61053a565b6040516100f8919061127b565b60405180910390f35b34801561010d57600080fd5b50610116610579565b60405161012391906114da565b60405180910390f35b34801561013857600080fd5b5061014161057f565b60405161014e91906114da565b60405180910390f35b34801561016357600080fd5b5061016c61058d565b005b34801561017a57600080fd5b5061019560048036038101906101909190610f00565b6105bb565b005b3480156101a357600080fd5b506101ac610657565b6040516101b9919061135d565b60405180910390f35b6101ca61066a565b005b3480156101d857600080fd5b506101e16107bd565b6040516101ee919061127b565b60405180910390f35b600354670de0b6b3a76400007f000000000000000000000000000000000000000000000000000000000000000073ffffffffffffffffffffffffffffffffffffffff166370a08231306040518263ffffffff1660e01b815260040161025c919061127b565b60206040518083038186803b15801561027457600080fd5b505afa158015610288573d6000803e3d6000fd5b505050506040513d601f19601f820116820180604052508101906102ac9190610f6d565b6102b691906116cb565b10156102f7576040517f08c379a00000000000000000000000000000000000000000000000000000000081526004016102ee906113ba565b60405180910390fd5b6000600281111561030b5761030a611892565b5b600660149054906101000a900460ff16600281111561032d5761032c611892565b5b1461036d576040517f08c379a0000000000000000000000000000000000000000000000000000000008152600401610364906113fa565b60405180910390fd5b600060048054905014156103b6576040517f08c379a00000000000000000000000000000000000000000000000000000000081526004016103ad9061145a565b60405180910390fd5b6002600660146101000a81548160ff021916908360028111156103dc576103db611892565b5b021790555060006103f16002546003546107e3565b90507f6fd8222bb1a1346eff3df8e6cb95d56d8acc1eb50d1af465f9e1fe6854eb2b7a8160405161042291906112d4565b60405180910390a17ffe826ea67a9f78973559f193d27bef0a395981ca89d1cebd4b7561735bc9b2096040516104579061139a565b60405180910390a150565b6001600281111561047657610475611892565b5b600660149054906101000a900460ff16600281111561049857610497611892565b5b146104d8576040517f08c379a00000000000000000000000000000000000000000000000000000000081526004016104cf906113da565b60405180910390fd5b6000600660146101000a81548160ff021916908360028111156104fe576104fd611892565b5b02179055507ffe826ea67a9f78973559f193d27bef0a395981ca89d1cebd4b7561735bc9b2096040516105309061149a565b60405180910390a1565b6004818154811061054a57600080fd5b906000526020600020016000915054906101000a900473ffffffffffffffffffffffffffffffffffffffff1681565b60055481565b600080600290508091505090565b7f0d02a7228f7445b79385af89ae273e0bfc8babce9fe11b925dc0790593b7f50560405160405180910390a1565b7f000000000000000000000000000000000000000000000000000000000000000073ffffffffffffffffffffffffffffffffffffffff163373ffffffffffffffffffffffffffffffffffffffff1614610649576040517f08c379a00000000000000000000000000000000000000000000000000000000081526004016106409061141a565b60405180910390fd5b6106538282610942565b5050565b600660149054906101000a900460ff1681565b6000600281111561067e5761067d611892565b5b600660149054906101000a900460ff1660028111156106a05761069f611892565b5b146106e0576040517f08c379a00000000000000000000000000000000000000000000000000000000081526004016106d79061147a565b60405180910390fd5b60326106eb34610ae9565b101561072c576040517f08c379a0000000000000000000000000000000000000000000000000000000008152600401610723906114ba565b60405180910390fd5b6004339080600181540180825580915050600190039060005260206000200160009091909190916101000a81548173ffffffffffffffffffffffffffffffffffffffff021916908373ffffffffffffffffffffffffffffffffffffffff1602179055507f0d02a7228f7445b79385af89ae273e0bfc8babce9fe11b925dc0790593b7f50560405160405180910390a1565b600660009054906101000a900473ffffffffffffffffffffffffffffffffffffffff1681565b60007f000000000000000000000000000000000000000000000000000000000000000073ffffffffffffffffffffffffffffffffffffffff16634000aea07f0000000000000000000000000000000000000000000000000000000000000000848660006040516020016108579291906112ef565b6040516020818303038152906040526040518463ffffffff1660e01b815260040161088493929190611296565b602060405180830381600087803b15801561089e57600080fd5b505af11580156108b2573d6000803e3d6000fd5b505050506040513d601f19601f820116820180604052508101906108d69190610ed3565b5060006108f88460003060008089815260200190815260200160002054610b24565b9050600160008086815260200190815260200160002054610919919061152d565b600080868152602001908152602001600020819055506109398482610b60565b91505092915050565b6000600480549050826109559190611803565b90506004818154811061096b5761096a6118c1565b5b9060005260206000200160009054906101000a900473ffffffffffffffffffffffffffffffffffffffff16600660006101000a81548173ffffffffffffffffffffffffffffffffffffffff021916908373ffffffffffffffffffffffffffffffffffffffff160217905550600067ffffffffffffffff8111156109f1576109f06118f0565b5b604051908082528060200260200182016040528015610a1f5781602001602082028036833780820191505090505b5060049080519060200190610a35929190610dae565b506001600660146101000a81548160ff02191690836002811115610a5c57610a5b611892565b5b021790555081600581905550610aa66040518060400160405280600a81526020017f52616e646f6d6e65737300000000000000000000000000000000000000000000815250610b93565b610aaf82610c2c565b7ffe826ea67a9f78973559f193d27bef0a395981ca89d1cebd4b7561735bc9b209604051610adc9061143a565b60405180910390a1505050565b600080610af4610cc5565b90506ec097ce7bc90715b34b9f10000000008382610b1291906116cb565b610b1c9190611583565b915050919050565b600084848484604051602001610b3d9493929190611318565b6040516020818303038152906040528051906020012060001c9050949350505050565b60008282604051602001610b7592919061124f565b60405160208183030381529060405280519060200120905092915050565b610c2981604051602401610ba79190611378565b6040516020818303038152906040527f41304fac000000000000000000000000000000000000000000000000000000007bffffffffffffffffffffffffffffffffffffffffffffffffffffffff19166020820180517bffffffffffffffffffffffffffffffffffffffffffffffffffffffff8381831617835250505050610d85565b50565b610cc281604051602401610c4091906114da565b6040516020818303038152906040527ff5b1bba9000000000000000000000000000000000000000000000000000000007bffffffffffffffffffffffffffffffffffffffffffffffffffffffff19166020820180517bffffffffffffffffffffffffffffffffffffffffffffffffffffffff8381831617835250505050610d85565b50565b600080600160009054906101000a900473ffffffffffffffffffffffffffffffffffffffff1673ffffffffffffffffffffffffffffffffffffffff1663feaf968c6040518163ffffffff1660e01b815260040160a06040518083038186803b158015610d3057600080fd5b505afa158015610d44573d6000803e3d6000fd5b505050506040513d601f19601f82011682018060405250810190610d689190610f9a565b5050509150506402540be40081610d7f91906115b4565b91505090565b60008151905060006a636f6e736f6c652e6c6f679050602083016000808483855afa5050505050565b828054828255906000526020600020908101928215610e27579160200282015b82811115610e265782518260006101000a81548173ffffffffffffffffffffffffffffffffffffffff021916908373ffffffffffffffffffffffffffffffffffffffff16021790555091602001919060010190610dce565b5b509050610e349190610e38565b5090565b5b80821115610e51576000816000905550600101610e39565b5090565b600081519050610e6481611b7b565b92915050565b600081359050610e7981611b92565b92915050565b600081519050610e8e81611ba9565b92915050565b600081359050610ea381611bc0565b92915050565b600081519050610eb881611bc0565b92915050565b600081519050610ecd81611bd7565b92915050565b600060208284031215610ee957610ee861191f565b5b6000610ef784828501610e55565b91505092915050565b60008060408385031215610f1757610f1661191f565b5b6000610f2585828601610e6a565b9250506020610f3685828601610e94565b9150509250929050565b600060208284031215610f5657610f5561191f565b5b6000610f6484828501610e94565b91505092915050565b600060208284031215610f8357610f8261191f565b5b6000610f9184828501610ea9565b91505092915050565b600080600080600060a08688031215610fb657610fb561191f565b5b6000610fc488828901610ebe565b9550506020610fd588828901610e7f565b9450506040610fe688828901610ea9565b9350506060610ff788828901610ea9565b925050608061100888828901610ebe565b9150509295509295909350565b61101e81611725565b82525050565b61102d81611743565b82525050565b61104461103f82611743565b6117ef565b82525050565b6000611055826114f5565b61105f818561150b565b935061106f8185602086016117bc565b61107881611924565b840191505092915050565b61108c816117aa565b82525050565b600061109d82611500565b6110a7818561151c565b93506110b78185602086016117bc565b6110c081611924565b840191505092915050565b60006110d8600e8361151c565b91506110e382611935565b602082019050919050565b60006110fb602b8361151c565b91506111068261195e565b604082019050919050565b600061111e60338361151c565b9150611129826119ad565b604082019050919050565b6000611141601a8361151c565b915061114c826119fc565b602082019050919050565b6000611164601f8361151c565b915061116f82611a25565b602082019050919050565b600061118760068361151c565b915061119282611a4e565b602082019050919050565b60006111aa60278361151c565b91506111b582611a77565b604082019050919050565b60006111cd60328361151c565b91506111d882611ac6565b604082019050919050565b60006111f060048361151c565b91506111fb82611b15565b602082019050919050565b6000611213601f8361151c565b915061121e82611b3e565b602082019050919050565b6112328161178a565b82525050565b6112496112448261178a565b6117f9565b82525050565b600061125b8285611033565b60208201915061126b8284611238565b6020820191508190509392505050565b60006020820190506112906000830184611015565b92915050565b60006060820190506112ab6000830186611015565b6112b86020830185611229565b81810360408301526112ca818461104a565b9050949350505050565b60006020820190506112e96000830184611024565b92915050565b60006040820190506113046000830185611024565b6113116020830184611229565b9392505050565b600060808201905061132d6000830187611024565b61133a6020830186611229565b6113476040830185611015565b6113546060830184611229565b95945050505050565b60006020820190506113726000830184611083565b92915050565b600060208201905081810360008301526113928184611092565b905092915050565b600060208201905081810360008301526113b3816110cb565b9050919050565b600060208201905081810360008301526113d3816110ee565b9050919050565b600060208201905081810360008301526113f381611111565b9050919050565b6000602082019050818103600083015261141381611134565b9050919050565b6000602082019050818103600083015261143381611157565b9050919050565b600060208201905081810360008301526114538161117a565b9050919050565b600060208201905081810360008301526114738161119d565b9050919050565b60006020820190508181036000830152611493816111c0565b9050919050565b600060208201905081810360008301526114b3816111e3565b9050919050565b600060208201905081810360008301526114d381611206565b9050919050565b60006020820190506114ef6000830184611229565b92915050565b600081519050919050565b600081519050919050565b600082825260208201905092915050565b600082825260208201905092915050565b60006115388261178a565b91506115438361178a565b9250827fffffffffffffffffffffffffffffffffffffffffffffffffffffffffffffffff0382111561157857611577611834565b5b828201905092915050565b600061158e8261178a565b91506115998361178a565b9250826115a9576115a8611863565b5b828204905092915050565b60006115bf82611760565b91506115ca83611760565b9250827f7fffffffffffffffffffffffffffffffffffffffffffffffffffffffffffffff048211600084136000841316161561160957611608611834565b5b817f8000000000000000000000000000000000000000000000000000000000000000058312600084126000841316161561164657611645611834565b5b827f8000000000000000000000000000000000000000000000000000000000000000058212600084136000841216161561168357611682611834565b5b827f7fffffffffffffffffffffffffffffffffffffffffffffffffffffffffffffff05821260008412600084121616156116c0576116bf611834565b5b828202905092915050565b60006116d68261178a565b91506116e18361178a565b9250817fffffffffffffffffffffffffffffffffffffffffffffffffffffffffffffffff048311821515161561171a57611719611834565b5b828202905092915050565b60006117308261176a565b9050919050565b60008115159050919050565b6000819050919050565b600081905061175b82611b67565b919050565b6000819050919050565b600073ffffffffffffffffffffffffffffffffffffffff82169050919050565b6000819050919050565b600069ffffffffffffffffffff82169050919050565b60006117b58261174d565b9050919050565b60005b838110156117da5780820151818401526020810190506117bf565b838111156117e9576000848401525b50505050565b6000819050919050565b6000819050919050565b600061180e8261178a565b91506118198361178a565b92508261182957611828611863565b5b828206905092915050565b7f4e487b7100000000000000000000000000000000000000000000000000000000600052601160045260246000fd5b7f4e487b7100000000000000000000000000000000000000000000000000000000600052601260045260246000fd5b7f4e487b7100000000000000000000000000000000000000000000000000000000600052602160045260246000fd5b7f4e487b7100000000000000000000000000000000000000000000000000000000600052603260045260246000fd5b7f4e487b7100000000000000000000000000000000000000000000000000000000600052604160045260246000fd5b600080fd5b6000601f19601f8301169050919050565b7f5049434b494e475f57494e4e4552000000000000000000000000000000000000600082015250565b7f4e6f7420656e6f756768204c494e4b202d2066696c6c20636f6e74726163742060008201527f7769746820666175636574000000000000000000000000000000000000000000602082015250565b7f4c6f7474657279207374617465206d75737420626520636c6f73656420746f2060008201527f73746172742061206e6577206c6f747465727900000000000000000000000000602082015250565b7f4c6f7474657279206d75737420626520696e2070726f63657373000000000000600082015250565b7f4f6e6c7920565246436f6f7264696e61746f722063616e2066756c66696c6c00600082015250565b7f434c4f5345440000000000000000000000000000000000000000000000000000600082015250565b7f4d7573742068617665207061727469636970616e747320746f207069636b206160008201527f2077696e6e657200000000000000000000000000000000000000000000000000602082015250565b7f43616e277420656e746572206120636c6f736564206c6f74746572792c206c6f60008201527f7474657279206d757374206265206f70656e0000000000000000000000000000602082015250565b7f4f50454e00000000000000000000000000000000000000000000000000000000600082015250565b7f4e65656420746f2073656e6420243530206f72206d6f726520696e2045544800600082015250565b60038110611b7857611b77611892565b5b50565b611b8481611737565b8114611b8f57600080fd5b50565b611b9b81611743565b8114611ba657600080fd5b50565b611bb281611760565b8114611bbd57600080fd5b50565b611bc98161178a565b8114611bd457600080fd5b50565b611be081611794565b8114611beb57600080fd5b5056fea264697066735822122080b8df8e47cbbbd8a23779bc16a323eb71a35938c1973ce11b545a95202f07dd64736f6c63430008070033","linkReferences":{},"deployedLinkReferences":{}}