{"_format":"hh-sol-artifact-1","contractName":"Lottery","sourceName":"contracts/Lottery.sol","abi":[{"inputs":[{"internalType":"address","name":"_priceFeedAddress","type":"address"},{"internalType":"address","name":"_vrfCoordinator","type":"address"},{"internalType":"address","name":"_link","type":"address"},{"internalType":"uint256","name":"_fee","type":"uint256"},{"internalType":"bytes32","name":"_keyhash","type":"bytes32"}],"stateMutability":"nonpayable","type":"constructor"},{"anonymous":false,"inputs":[{"indexed":false,"internalType":"bytes32","name":"requestId","type":"bytes32"}],"name":"PickingWinner","type":"event"},{"anonymous":false,"inputs":[],"name":"PlayerEntered","type":"event"},{"anonymous":false,"inputs":[{"indexed":false,"internalType":"string","name":"state","type":"string"}],"name":"StateChange","type":"event"},{"inputs":[],"name":"emitEvent","outputs":[],"stateMutability":"nonpayable","type":"function"},{"inputs":[],"name":"endLottery","outputs":[],"stateMutability":"nonpayable","type":"function"},{"inputs":[],"name":"enterLottery","outputs":[],"stateMutability":"payable","type":"function"},{"inputs":[],"name":"getParticipantsLength","outputs":[{"internalType":"uint256","name":"","type":"uint256"}],"stateMutability":"view","type":"function"},{"inputs":[],"name":"lastWinnerData","outputs":[{"internalType":"address","name":"lastWinner","type":"address"},{"internalType":"uint256","name":"etherWonByLastWinner","type":"uint256"},{"internalType":"uint256","name":"playersInLastLottery","type":"uint256"}],"stateMutability":"view","type":"function"},{"inputs":[{"internalType":"uint256","name":"","type":"uint256"}],"name":"participants","outputs":[{"internalType":"address","name":"","type":"address"}],"stateMutability":"view","type":"function"},{"inputs":[],"name":"randomResult","outputs":[{"internalType":"uint256","name":"","type":"uint256"}],"stateMutability":"view","type":"function"},{"inputs":[{"internalType":"bytes32","name":"requestId","type":"bytes32"},{"internalType":"uint256","name":"randomness","type":"uint256"}],"name":"rawFulfillRandomness","outputs":[],"stateMutability":"nonpayable","type":"function"},{"inputs":[],"name":"startLottery","outputs":[],"stateMutability":"nonpayable","type":"function"},{"inputs":[],"name":"state","outputs":[{"internalType":"enum Lottery.LOTTERY_STATE","name":"","type":"uint8"}],"stateMutability":"view","type":"function"}],"bytecode":"0x60c06040526001600960006101000a81548160ff021916908360028111156200002d576200002c62000246565b5b02179055503480156200003f57600080fd5b5060405162001dbd38038062001dbd833981810160405281019062000065919062000176565b83838173ffffffffffffffffffffffffffffffffffffffff1660a08173ffffffffffffffffffffffffffffffffffffffff1660601b815250508073ffffffffffffffffffffffffffffffffffffffff1660808173ffffffffffffffffffffffffffffffffffffffff1660601b81525050505084600160006101000a81548173ffffffffffffffffffffffffffffffffffffffff021916908373ffffffffffffffffffffffffffffffffffffffff16021790555080600281905550816003819055505050505050620002c8565b60008151905062000142816200027a565b92915050565b600081519050620001598162000294565b92915050565b6000815190506200017081620002ae565b92915050565b600080600080600060a0868803121562000195576200019462000275565b5b6000620001a58882890162000131565b9550506020620001b88882890162000131565b9450506040620001cb8882890162000131565b9350506060620001de888289016200015f565b9250506080620001f18882890162000148565b9150509295509295909350565b60006200020b826200021c565b9050919050565b6000819050919050565b600073ffffffffffffffffffffffffffffffffffffffff82169050919050565b6000819050919050565b7f4e487b7100000000000000000000000000000000000000000000000000000000600052602160045260246000fd5b600080fd5b6200028581620001fe565b81146200029157600080fd5b50565b6200029f8162000212565b8114620002ab57600080fd5b50565b620002b9816200023c565b8114620002c557600080fd5b50565b60805160601c60a05160601c611abb62000302600039600081816105f6015261083601526000818161020701526107fa0152611abb6000f3fe6080604052600436106100915760003560e01c80637b0cb839116100595780637b0cb83914610157578063808a242b1461016e57806394985ddd1461019b578063c19d93fb146101c4578063c1af5785146101ef57610091565b80631593a8c714610096578063160344e2146100ad57806335c1d349146100c457806342619f661461010157806376ab5af61461012c575b600080fd5b3480156100a257600080fd5b506100ab6101f9565b005b3480156100b957600080fd5b506100c2610464565b005b3480156100d057600080fd5b506100eb60048036038101906100e69190610e06565b61053c565b6040516100f89190611108565b60405180910390f35b34801561010d57600080fd5b5061011661057b565b604051610123919061137c565b60405180910390f35b34801561013857600080fd5b50610141610581565b60405161014e919061137c565b60405180910390f35b34801561016357600080fd5b5061016c61058e565b005b34801561017a57600080fd5b506101836105bc565b60405161019293929190611161565b60405180910390f35b3480156101a757600080fd5b506101c260048036038101906101bd9190610dc6565b6105f4565b005b3480156101d057600080fd5b506101d9610690565b6040516101e69190611221565b60405180910390f35b6101f76106a3565b005b600354670de0b6b3a76400007f000000000000000000000000000000000000000000000000000000000000000073ffffffffffffffffffffffffffffffffffffffff166370a08231306040518263ffffffff1660e01b815260040161025e9190611108565b60206040518083038186803b15801561027657600080fd5b505afa15801561028a573d6000803e3d6000fd5b505050506040513d601f19601f820116820180604052508101906102ae9190610e33565b6102b89190611562565b10156102f9576040517f08c379a00000000000000000000000000000000000000000000000000000000081526004016102f09061125c565b60405180910390fd5b6000600281111561030d5761030c611729565b5b600960009054906101000a900460ff16600281111561032f5761032e611729565b5b1461036f576040517f08c379a00000000000000000000000000000000000000000000000000000000081526004016103669061129c565b60405180910390fd5b600060048054905014156103b8576040517f08c379a00000000000000000000000000000000000000000000000000000000081526004016103af906112fc565b60405180910390fd5b6002600960006101000a81548160ff021916908360028111156103de576103dd611729565b5b021790555060006103f36002546003546107f6565b90507f6fd8222bb1a1346eff3df8e6cb95d56d8acc1eb50d1af465f9e1fe6854eb2b7a816040516104249190611198565b60405180910390a17ffe826ea67a9f78973559f193d27bef0a395981ca89d1cebd4b7561735bc9b2096040516104599061123c565b60405180910390a150565b6001600281111561047857610477611729565b5b600960009054906101000a900460ff16600281111561049a57610499611729565b5b146104da576040517f08c379a00000000000000000000000000000000000000000000000000000000081526004016104d19061127c565b60405180910390fd5b6000600960006101000a81548160ff02191690836002811115610500576104ff611729565b5b02179055507ffe826ea67a9f78973559f193d27bef0a395981ca89d1cebd4b7561735bc9b2096040516105329061133c565b60405180910390a1565b6004818154811061054c57600080fd5b906000526020600020016000915054906101000a900473ffffffffffffffffffffffffffffffffffffffff1681565b60055481565b6000600480549050905090565b7f0d02a7228f7445b79385af89ae273e0bfc8babce9fe11b925dc0790593b7f50560405160405180910390a1565b60068060000160009054906101000a900473ffffffffffffffffffffffffffffffffffffffff16908060010154908060020154905083565b7f000000000000000000000000000000000000000000000000000000000000000073ffffffffffffffffffffffffffffffffffffffff163373ffffffffffffffffffffffffffffffffffffffff1614610682576040517f08c379a0000000000000000000000000000000000000000000000000000000008152600401610679906112bc565b60405180910390fd5b61068c8282610955565b5050565b600960009054906101000a900460ff1681565b600060028111156106b7576106b6611729565b5b600960009054906101000a900460ff1660028111156106d9576106d8611729565b5b14610719576040517f08c379a00000000000000000000000000000000000000000000000000000000081526004016107109061131c565b60405180910390fd5b603261072434610b0a565b1015610765576040517f08c379a000000000000000000000000000000000000000000000000000000000815260040161075c9061135c565b60405180910390fd5b6004339080600181540180825580915050600190039060005260206000200160009091909190916101000a81548173ffffffffffffffffffffffffffffffffffffffff021916908373ffffffffffffffffffffffffffffffffffffffff1602179055507f0d02a7228f7445b79385af89ae273e0bfc8babce9fe11b925dc0790593b7f50560405160405180910390a1565b60007f000000000000000000000000000000000000000000000000000000000000000073ffffffffffffffffffffffffffffffffffffffff16634000aea07f00000000000000000000000000000000000000000000000000000000000000008486600060405160200161086a9291906111b3565b6040516020818303038152906040526040518463ffffffff1660e01b815260040161089793929190611123565b602060405180830381600087803b1580156108b157600080fd5b505af11580156108c5573d6000803e3d6000fd5b505050506040513d601f19601f820116820180604052508101906108e99190610d99565b50600061090b8460003060008089815260200190815260200160002054610b45565b905060016000808681526020019081526020016000205461092c91906113c4565b6000808681526020019081526020016000208190555061094c8482610b81565b91505092915050565b600060048054905082610968919061169a565b905060405180606001604052806004838154811061098957610988611758565b5b9060005260206000200160009054906101000a900473ffffffffffffffffffffffffffffffffffffffff1673ffffffffffffffffffffffffffffffffffffffff168152602001478152602001600480549050815250600660008201518160000160006101000a81548173ffffffffffffffffffffffffffffffffffffffff021916908373ffffffffffffffffffffffffffffffffffffffff1602179055506020820151816001015560408201518160020155905050600067ffffffffffffffff811115610a5957610a58611787565b5b604051908082528060200260200182016040528015610a875781602001602082028036833780820191505090505b5060049080519060200190610a9d929190610c74565b506001600960006101000a81548160ff02191690836002811115610ac457610ac3611729565b5b0217905550816005819055507ffe826ea67a9f78973559f193d27bef0a395981ca89d1cebd4b7561735bc9b209604051610afd906112dc565b60405180910390a1505050565b600080610b15610bb4565b90506ec097ce7bc90715b34b9f10000000008382610b339190611562565b610b3d919061141a565b915050919050565b600084848484604051602001610b5e94939291906111dc565b6040516020818303038152906040528051906020012060001c9050949350505050565b60008282604051602001610b969291906110dc565b60405160208183030381529060405280519060200120905092915050565b600080600160009054906101000a900473ffffffffffffffffffffffffffffffffffffffff1673ffffffffffffffffffffffffffffffffffffffff1663feaf968c6040518163ffffffff1660e01b815260040160a06040518083038186803b158015610c1f57600080fd5b505afa158015610c33573d6000803e3d6000fd5b505050506040513d601f19601f82011682018060405250810190610c579190610e60565b5050509150506402540be40081610c6e919061144b565b91505090565b828054828255906000526020600020908101928215610ced579160200282015b82811115610cec5782518260006101000a81548173ffffffffffffffffffffffffffffffffffffffff021916908373ffffffffffffffffffffffffffffffffffffffff16021790555091602001919060010190610c94565b5b509050610cfa9190610cfe565b5090565b5b80821115610d17576000816000905550600101610cff565b5090565b600081519050610d2a81611a12565b92915050565b600081359050610d3f81611a29565b92915050565b600081519050610d5481611a40565b92915050565b600081359050610d6981611a57565b92915050565b600081519050610d7e81611a57565b92915050565b600081519050610d9381611a6e565b92915050565b600060208284031215610daf57610dae6117b6565b5b6000610dbd84828501610d1b565b91505092915050565b60008060408385031215610ddd57610ddc6117b6565b5b6000610deb85828601610d30565b9250506020610dfc85828601610d5a565b9150509250929050565b600060208284031215610e1c57610e1b6117b6565b5b6000610e2a84828501610d5a565b91505092915050565b600060208284031215610e4957610e486117b6565b5b6000610e5784828501610d6f565b91505092915050565b600080600080600060a08688031215610e7c57610e7b6117b6565b5b6000610e8a88828901610d84565b9550506020610e9b88828901610d45565b9450506040610eac88828901610d6f565b9350506060610ebd88828901610d6f565b9250506080610ece88828901610d84565b9150509295509295909350565b610ee4816115bc565b82525050565b610ef3816115da565b82525050565b610f0a610f05826115da565b611686565b82525050565b6000610f1b82611397565b610f2581856113a2565b9350610f35818560208601611653565b610f3e816117bb565b840191505092915050565b610f5281611641565b82525050565b6000610f65600e836113b3565b9150610f70826117cc565b602082019050919050565b6000610f88602b836113b3565b9150610f93826117f5565b604082019050919050565b6000610fab6033836113b3565b9150610fb682611844565b604082019050919050565b6000610fce601a836113b3565b9150610fd982611893565b602082019050919050565b6000610ff1601f836113b3565b9150610ffc826118bc565b602082019050919050565b60006110146006836113b3565b915061101f826118e5565b602082019050919050565b60006110376027836113b3565b91506110428261190e565b604082019050919050565b600061105a6032836113b3565b91506110658261195d565b604082019050919050565b600061107d6004836113b3565b9150611088826119ac565b602082019050919050565b60006110a0601f836113b3565b91506110ab826119d5565b602082019050919050565b6110bf81611621565b82525050565b6110d66110d182611621565b611690565b82525050565b60006110e88285610ef9565b6020820191506110f882846110c5565b6020820191508190509392505050565b600060208201905061111d6000830184610edb565b92915050565b60006060820190506111386000830186610edb565b61114560208301856110b6565b81810360408301526111578184610f10565b9050949350505050565b60006060820190506111766000830186610edb565b61118360208301856110b6565b61119060408301846110b6565b949350505050565b60006020820190506111ad6000830184610eea565b92915050565b60006040820190506111c86000830185610eea565b6111d560208301846110b6565b9392505050565b60006080820190506111f16000830187610eea565b6111fe60208301866110b6565b61120b6040830185610edb565b61121860608301846110b6565b95945050505050565b60006020820190506112366000830184610f49565b92915050565b6000602082019050818103600083015261125581610f58565b9050919050565b6000602082019050818103600083015261127581610f7b565b9050919050565b6000602082019050818103600083015261129581610f9e565b9050919050565b600060208201905081810360008301526112b581610fc1565b9050919050565b600060208201905081810360008301526112d581610fe4565b9050919050565b600060208201905081810360008301526112f581611007565b9050919050565b600060208201905081810360008301526113158161102a565b9050919050565b600060208201905081810360008301526113358161104d565b9050919050565b6000602082019050818103600083015261135581611070565b9050919050565b6000602082019050818103600083015261137581611093565b9050919050565b600060208201905061139160008301846110b6565b92915050565b600081519050919050565b600082825260208201905092915050565b600082825260208201905092915050565b60006113cf82611621565b91506113da83611621565b9250827fffffffffffffffffffffffffffffffffffffffffffffffffffffffffffffffff0382111561140f5761140e6116cb565b5b828201905092915050565b600061142582611621565b915061143083611621565b9250826114405761143f6116fa565b5b828204905092915050565b6000611456826115f7565b9150611461836115f7565b9250827f7fffffffffffffffffffffffffffffffffffffffffffffffffffffffffffffff04821160008413600084131616156114a05761149f6116cb565b5b817f800000000000000000000000000000000000000000000000000000000000000005831260008412600084131616156114dd576114dc6116cb565b5b827f8000000000000000000000000000000000000000000000000000000000000000058212600084136000841216161561151a576115196116cb565b5b827f7fffffffffffffffffffffffffffffffffffffffffffffffffffffffffffffff0582126000841260008412161615611557576115566116cb565b5b828202905092915050565b600061156d82611621565b915061157883611621565b9250817fffffffffffffffffffffffffffffffffffffffffffffffffffffffffffffffff04831182151516156115b1576115b06116cb565b5b828202905092915050565b60006115c782611601565b9050919050565b60008115159050919050565b6000819050919050565b60008190506115f2826119fe565b919050565b6000819050919050565b600073ffffffffffffffffffffffffffffffffffffffff82169050919050565b6000819050919050565b600069ffffffffffffffffffff82169050919050565b600061164c826115e4565b9050919050565b60005b83811015611671578082015181840152602081019050611656565b83811115611680576000848401525b50505050565b6000819050919050565b6000819050919050565b60006116a582611621565b91506116b083611621565b9250826116c0576116bf6116fa565b5b828206905092915050565b7f4e487b7100000000000000000000000000000000000000000000000000000000600052601160045260246000fd5b7f4e487b7100000000000000000000000000000000000000000000000000000000600052601260045260246000fd5b7f4e487b7100000000000000000000000000000000000000000000000000000000600052602160045260246000fd5b7f4e487b7100000000000000000000000000000000000000000000000000000000600052603260045260246000fd5b7f4e487b7100000000000000000000000000000000000000000000000000000000600052604160045260246000fd5b600080fd5b6000601f19601f8301169050919050565b7f5049434b494e475f57494e4e4552000000000000000000000000000000000000600082015250565b7f4e6f7420656e6f756768204c494e4b202d2066696c6c20636f6e74726163742060008201527f7769746820666175636574000000000000000000000000000000000000000000602082015250565b7f4c6f7474657279207374617465206d75737420626520636c6f73656420746f2060008201527f73746172742061206e6577206c6f747465727900000000000000000000000000602082015250565b7f4c6f7474657279206d75737420626520696e2070726f63657373000000000000600082015250565b7f4f6e6c7920565246436f6f7264696e61746f722063616e2066756c66696c6c00600082015250565b7f434c4f5345440000000000000000000000000000000000000000000000000000600082015250565b7f4d7573742068617665207061727469636970616e747320746f207069636b206160008201527f2077696e6e657200000000000000000000000000000000000000000000000000602082015250565b7f43616e277420656e746572206120636c6f736564206c6f74746572792c206c6f60008201527f7474657279206d757374206265206f70656e0000000000000000000000000000602082015250565b7f4f50454e00000000000000000000000000000000000000000000000000000000600082015250565b7f4e65656420746f2073656e6420243530206f72206d6f726520696e2045544800600082015250565b60038110611a0f57611a0e611729565b5b50565b611a1b816115ce565b8114611a2657600080fd5b50565b611a32816115da565b8114611a3d57600080fd5b50565b611a49816115f7565b8114611a5457600080fd5b50565b611a6081611621565b8114611a6b57600080fd5b50565b611a778161162b565b8114611a8257600080fd5b5056fea26469706673582212206159149dfda1c7d0af45e367735f63208c89ae14201ba858809a1d7c788d6b0564736f6c63430008070033","linkReferences":{},"deployedLinkReferences":{}}