{"_format":"hh-sol-artifact-1","contractName":"Lottery","sourceName":"contracts/Lottery.sol","abi":[{"inputs":[{"internalType":"address","name":"_priceFeedAddress","type":"address"},{"internalType":"address","name":"_vrfCoordinator","type":"address"},{"internalType":"address","name":"_link","type":"address"},{"internalType":"uint256","name":"_fee","type":"uint256"},{"internalType":"bytes32","name":"_keyhash","type":"bytes32"}],"stateMutability":"nonpayable","type":"constructor"},{"anonymous":false,"inputs":[{"indexed":false,"internalType":"bytes32","name":"requestId","type":"bytes32"}],"name":"PickingWinner","type":"event"},{"inputs":[],"name":"endLottery","outputs":[],"stateMutability":"nonpayable","type":"function"},{"inputs":[],"name":"enterLottery","outputs":[],"stateMutability":"payable","type":"function"},{"inputs":[],"name":"lastWinner","outputs":[{"internalType":"address","name":"","type":"address"}],"stateMutability":"view","type":"function"},{"inputs":[{"internalType":"uint256","name":"","type":"uint256"}],"name":"participants","outputs":[{"internalType":"address","name":"","type":"address"}],"stateMutability":"view","type":"function"},{"inputs":[],"name":"randomResult","outputs":[{"internalType":"uint256","name":"","type":"uint256"}],"stateMutability":"view","type":"function"},{"inputs":[{"internalType":"bytes32","name":"requestId","type":"bytes32"},{"internalType":"uint256","name":"randomness","type":"uint256"}],"name":"rawFulfillRandomness","outputs":[],"stateMutability":"nonpayable","type":"function"},{"inputs":[],"name":"startLottery","outputs":[],"stateMutability":"nonpayable","type":"function"},{"inputs":[],"name":"state","outputs":[{"internalType":"enum Lottery.LOTTERY_STATE","name":"","type":"uint8"}],"stateMutability":"view","type":"function"}],"bytecode":"0x60c06040526001600660146101000a81548160ff021916908360028111156200002d576200002c62000246565b5b02179055503480156200003f57600080fd5b5060405162001c8338038062001c83833981810160405281019062000065919062000176565b83838173ffffffffffffffffffffffffffffffffffffffff1660a08173ffffffffffffffffffffffffffffffffffffffff1660601b815250508073ffffffffffffffffffffffffffffffffffffffff1660808173ffffffffffffffffffffffffffffffffffffffff1660601b81525050505084600160006101000a81548173ffffffffffffffffffffffffffffffffffffffff021916908373ffffffffffffffffffffffffffffffffffffffff16021790555080600281905550816003819055505050505050620002c8565b60008151905062000142816200027a565b92915050565b600081519050620001598162000294565b92915050565b6000815190506200017081620002ae565b92915050565b600080600080600060a0868803121562000195576200019462000275565b5b6000620001a58882890162000131565b9550506020620001b88882890162000131565b9450506040620001cb8882890162000131565b9350506060620001de888289016200015f565b9250506080620001f18882890162000148565b9150509295509295909350565b60006200020b826200021c565b9050919050565b6000819050919050565b600073ffffffffffffffffffffffffffffffffffffffff82169050919050565b6000819050919050565b7f4e487b7100000000000000000000000000000000000000000000000000000000600052602160045260246000fd5b600080fd5b6200028581620001fe565b81146200029157600080fd5b50565b6200029f8162000212565b8114620002ab57600080fd5b50565b620002b9816200023c565b8114620002c557600080fd5b50565b60805160601c60a05160601c61198162000302600039600081816104bf01526106f90152600081816101ad01526106bd01526119816000f3fe60806040526004361061007b5760003560e01c806394985ddd1161004e57806394985ddd14610116578063c19d93fb1461013f578063c1af57851461016a578063fe188184146101745761007b565b80631593a8c714610080578063160344e21461009757806335c1d349146100ae57806342619f66146100eb575b600080fd5b34801561008c57600080fd5b5061009561019f565b005b3480156100a357600080fd5b506100ac6103d5565b005b3480156100ba57600080fd5b506100d560048036038101906100d09190610de1565b610478565b6040516100e291906110b3565b60405180910390f35b3480156100f757600080fd5b506101006104b7565b60405161010d91906112b2565b60405180910390f35b34801561012257600080fd5b5061013d60048036038101906101389190610da1565b6104bd565b005b34801561014b57600080fd5b50610154610559565b6040516101619190611195565b60405180910390f35b61017261056c565b005b34801561018057600080fd5b50610189610693565b60405161019691906110b3565b60405180910390f35b600354670de0b6b3a76400007f000000000000000000000000000000000000000000000000000000000000000073ffffffffffffffffffffffffffffffffffffffff166370a08231306040518263ffffffff1660e01b815260040161020491906110b3565b60206040518083038186803b15801561021c57600080fd5b505afa158015610230573d6000803e3d6000fd5b505050506040513d601f19601f820116820180604052508101906102549190610e0e565b61025e91906114a3565b101561029f576040517f08c379a0000000000000000000000000000000000000000000000000000000008152600401610296906111d2565b60405180910390fd5b600060028111156102b3576102b261166a565b5b600660149054906101000a900460ff1660028111156102d5576102d461166a565b5b14610315576040517f08c379a000000000000000000000000000000000000000000000000000000000815260040161030c90611212565b60405180910390fd5b6000600480549050141561035e576040517f08c379a000000000000000000000000000000000000000000000000000000000815260040161035590611252565b60405180910390fd5b6002600660146101000a81548160ff021916908360028111156103845761038361166a565b5b021790555060006103996002546003546106b9565b90507f6fd8222bb1a1346eff3df8e6cb95d56d8acc1eb50d1af465f9e1fe6854eb2b7a816040516103ca919061110c565b60405180910390a150565b600160028111156103e9576103e861166a565b5b600660149054906101000a900460ff16600281111561040b5761040a61166a565b5b1461044b576040517f08c379a0000000000000000000000000000000000000000000000000000000008152600401610442906111f2565b60405180910390fd5b6000600660146101000a81548160ff021916908360028111156104715761047061166a565b5b0217905550565b6004818154811061048857600080fd5b906000526020600020016000915054906101000a900473ffffffffffffffffffffffffffffffffffffffff1681565b60055481565b7f000000000000000000000000000000000000000000000000000000000000000073ffffffffffffffffffffffffffffffffffffffff163373ffffffffffffffffffffffffffffffffffffffff161461054b576040517f08c379a000000000000000000000000000000000000000000000000000000000815260040161054290611232565b60405180910390fd5b6105558282610818565b5050565b600660149054906101000a900460ff1681565b600060028111156105805761057f61166a565b5b600660149054906101000a900460ff1660028111156105a2576105a161166a565b5b146105e2576040517f08c379a00000000000000000000000000000000000000000000000000000000081526004016105d990611272565b60405180910390fd5b60326105ed3461098a565b101561062e576040517f08c379a000000000000000000000000000000000000000000000000000000000815260040161062590611292565b60405180910390fd5b6004339080600181540180825580915050600190039060005260206000200160009091909190916101000a81548173ffffffffffffffffffffffffffffffffffffffff021916908373ffffffffffffffffffffffffffffffffffffffff160217905550565b600660009054906101000a900473ffffffffffffffffffffffffffffffffffffffff1681565b60007f000000000000000000000000000000000000000000000000000000000000000073ffffffffffffffffffffffffffffffffffffffff16634000aea07f00000000000000000000000000000000000000000000000000000000000000008486600060405160200161072d929190611127565b6040516020818303038152906040526040518463ffffffff1660e01b815260040161075a939291906110ce565b602060405180830381600087803b15801561077457600080fd5b505af1158015610788573d6000803e3d6000fd5b505050506040513d601f19601f820116820180604052508101906107ac9190610d74565b5060006107ce84600030600080898152602001908152602001600020546109c5565b90506001600080868152602001908152602001600020546107ef9190611305565b6000808681526020019081526020016000208190555061080f8482610a01565b91505092915050565b60006004805490508261082b91906115db565b90506004818154811061084157610840611699565b5b9060005260206000200160009054906101000a900473ffffffffffffffffffffffffffffffffffffffff16600660006101000a81548173ffffffffffffffffffffffffffffffffffffffff021916908373ffffffffffffffffffffffffffffffffffffffff160217905550600067ffffffffffffffff8111156108c7576108c66116c8565b5b6040519080825280602002602001820160405280156108f55781602001602082028036833780820191505090505b506004908051906020019061090b929190610c4f565b506001600660146101000a81548160ff021916908360028111156109325761093161166a565b5b02179055508160058190555061097c6040518060400160405280600a81526020017f52616e646f6d6e65737300000000000000000000000000000000000000000000815250610a34565b61098582610acd565b505050565b600080610995610b66565b90506ec097ce7bc90715b34b9f100000000083826109b391906114a3565b6109bd919061135b565b915050919050565b6000848484846040516020016109de9493929190611150565b6040516020818303038152906040528051906020012060001c9050949350505050565b60008282604051602001610a16929190611087565b60405160208183030381529060405280519060200120905092915050565b610aca81604051602401610a4891906111b0565b6040516020818303038152906040527f41304fac000000000000000000000000000000000000000000000000000000007bffffffffffffffffffffffffffffffffffffffffffffffffffffffff19166020820180517bffffffffffffffffffffffffffffffffffffffffffffffffffffffff8381831617835250505050610c26565b50565b610b6381604051602401610ae191906112b2565b6040516020818303038152906040527ff5b1bba9000000000000000000000000000000000000000000000000000000007bffffffffffffffffffffffffffffffffffffffffffffffffffffffff19166020820180517bffffffffffffffffffffffffffffffffffffffffffffffffffffffff8381831617835250505050610c26565b50565b600080600160009054906101000a900473ffffffffffffffffffffffffffffffffffffffff1673ffffffffffffffffffffffffffffffffffffffff1663feaf968c6040518163ffffffff1660e01b815260040160a06040518083038186803b158015610bd157600080fd5b505afa158015610be5573d6000803e3d6000fd5b505050506040513d601f19601f82011682018060405250810190610c099190610e3b565b5050509150506402540be40081610c20919061138c565b91505090565b60008151905060006a636f6e736f6c652e6c6f679050602083016000808483855afa5050505050565b828054828255906000526020600020908101928215610cc8579160200282015b82811115610cc75782518260006101000a81548173ffffffffffffffffffffffffffffffffffffffff021916908373ffffffffffffffffffffffffffffffffffffffff16021790555091602001919060010190610c6f565b5b509050610cd59190610cd9565b5090565b5b80821115610cf2576000816000905550600101610cda565b5090565b600081519050610d05816118d8565b92915050565b600081359050610d1a816118ef565b92915050565b600081519050610d2f81611906565b92915050565b600081359050610d448161191d565b92915050565b600081519050610d598161191d565b92915050565b600081519050610d6e81611934565b92915050565b600060208284031215610d8a57610d896116f7565b5b6000610d9884828501610cf6565b91505092915050565b60008060408385031215610db857610db76116f7565b5b6000610dc685828601610d0b565b9250506020610dd785828601610d35565b9150509250929050565b600060208284031215610df757610df66116f7565b5b6000610e0584828501610d35565b91505092915050565b600060208284031215610e2457610e236116f7565b5b6000610e3284828501610d4a565b91505092915050565b600080600080600060a08688031215610e5757610e566116f7565b5b6000610e6588828901610d5f565b9550506020610e7688828901610d20565b9450506040610e8788828901610d4a565b9350506060610e9888828901610d4a565b9250506080610ea988828901610d5f565b9150509295509295909350565b610ebf816114fd565b82525050565b610ece8161151b565b82525050565b610ee5610ee08261151b565b6115c7565b82525050565b6000610ef6826112cd565b610f0081856112e3565b9350610f10818560208601611594565b610f19816116fc565b840191505092915050565b610f2d81611582565b82525050565b6000610f3e826112d8565b610f4881856112f4565b9350610f58818560208601611594565b610f61816116fc565b840191505092915050565b6000610f79602b836112f4565b9150610f848261170d565b604082019050919050565b6000610f9c6033836112f4565b9150610fa78261175c565b604082019050919050565b6000610fbf601a836112f4565b9150610fca826117ab565b602082019050919050565b6000610fe2601f836112f4565b9150610fed826117d4565b602082019050919050565b60006110056027836112f4565b9150611010826117fd565b604082019050919050565b60006110286032836112f4565b91506110338261184c565b604082019050919050565b600061104b601f836112f4565b91506110568261189b565b602082019050919050565b61106a81611562565b82525050565b61108161107c82611562565b6115d1565b82525050565b60006110938285610ed4565b6020820191506110a38284611070565b6020820191508190509392505050565b60006020820190506110c86000830184610eb6565b92915050565b60006060820190506110e36000830186610eb6565b6110f06020830185611061565b81810360408301526111028184610eeb565b9050949350505050565b60006020820190506111216000830184610ec5565b92915050565b600060408201905061113c6000830185610ec5565b6111496020830184611061565b9392505050565b60006080820190506111656000830187610ec5565b6111726020830186611061565b61117f6040830185610eb6565b61118c6060830184611061565b95945050505050565b60006020820190506111aa6000830184610f24565b92915050565b600060208201905081810360008301526111ca8184610f33565b905092915050565b600060208201905081810360008301526111eb81610f6c565b9050919050565b6000602082019050818103600083015261120b81610f8f565b9050919050565b6000602082019050818103600083015261122b81610fb2565b9050919050565b6000602082019050818103600083015261124b81610fd5565b9050919050565b6000602082019050818103600083015261126b81610ff8565b9050919050565b6000602082019050818103600083015261128b8161101b565b9050919050565b600060208201905081810360008301526112ab8161103e565b9050919050565b60006020820190506112c76000830184611061565b92915050565b600081519050919050565b600081519050919050565b600082825260208201905092915050565b600082825260208201905092915050565b600061131082611562565b915061131b83611562565b9250827fffffffffffffffffffffffffffffffffffffffffffffffffffffffffffffffff038211156113505761134f61160c565b5b828201905092915050565b600061136682611562565b915061137183611562565b9250826113815761138061163b565b5b828204905092915050565b600061139782611538565b91506113a283611538565b9250827f7fffffffffffffffffffffffffffffffffffffffffffffffffffffffffffffff04821160008413600084131616156113e1576113e061160c565b5b817f8000000000000000000000000000000000000000000000000000000000000000058312600084126000841316161561141e5761141d61160c565b5b827f8000000000000000000000000000000000000000000000000000000000000000058212600084136000841216161561145b5761145a61160c565b5b827f7fffffffffffffffffffffffffffffffffffffffffffffffffffffffffffffff05821260008412600084121616156114985761149761160c565b5b828202905092915050565b60006114ae82611562565b91506114b983611562565b9250817fffffffffffffffffffffffffffffffffffffffffffffffffffffffffffffffff04831182151516156114f2576114f161160c565b5b828202905092915050565b600061150882611542565b9050919050565b60008115159050919050565b6000819050919050565b6000819050611533826118c4565b919050565b6000819050919050565b600073ffffffffffffffffffffffffffffffffffffffff82169050919050565b6000819050919050565b600069ffffffffffffffffffff82169050919050565b600061158d82611525565b9050919050565b60005b838110156115b2578082015181840152602081019050611597565b838111156115c1576000848401525b50505050565b6000819050919050565b6000819050919050565b60006115e682611562565b91506115f183611562565b9250826116015761160061163b565b5b828206905092915050565b7f4e487b7100000000000000000000000000000000000000000000000000000000600052601160045260246000fd5b7f4e487b7100000000000000000000000000000000000000000000000000000000600052601260045260246000fd5b7f4e487b7100000000000000000000000000000000000000000000000000000000600052602160045260246000fd5b7f4e487b7100000000000000000000000000000000000000000000000000000000600052603260045260246000fd5b7f4e487b7100000000000000000000000000000000000000000000000000000000600052604160045260246000fd5b600080fd5b6000601f19601f8301169050919050565b7f4e6f7420656e6f756768204c494e4b202d2066696c6c20636f6e74726163742060008201527f7769746820666175636574000000000000000000000000000000000000000000602082015250565b7f4c6f7474657279207374617465206d75737420626520636c6f73656420746f2060008201527f73746172742061206e6577206c6f747465727900000000000000000000000000602082015250565b7f4c6f7474657279206d75737420626520696e2070726f63657373000000000000600082015250565b7f4f6e6c7920565246436f6f7264696e61746f722063616e2066756c66696c6c00600082015250565b7f4d7573742068617665207061727469636970616e747320746f207069636b206160008201527f2077696e6e657200000000000000000000000000000000000000000000000000602082015250565b7f43616e277420656e746572206120636c6f736564206c6f74746572792c206c6f60008201527f7474657279206d757374206265206f70656e0000000000000000000000000000602082015250565b7f4e65656420746f2073656e6420243530206f72206d6f726520696e2045544800600082015250565b600381106118d5576118d461166a565b5b50565b6118e18161150f565b81146118ec57600080fd5b50565b6118f88161151b565b811461190357600080fd5b50565b61190f81611538565b811461191a57600080fd5b50565b61192681611562565b811461193157600080fd5b50565b61193d8161156c565b811461194857600080fd5b5056fea2646970667358221220587e8519dc4fd11be8d2871d5a3177471ba2654e308835e0a35777de6296b3a564736f6c63430008070033","linkReferences":{},"deployedLinkReferences":{}}