{"_format":"hh-sol-artifact-1","contractName":"Lottery","sourceName":"contracts/Lottery.sol","abi":[{"inputs":[{"internalType":"address","name":"_priceFeedAddress","type":"address"},{"internalType":"address","name":"_vrfCoordinator","type":"address"},{"internalType":"address","name":"_link","type":"address"},{"internalType":"uint256","name":"_fee","type":"uint256"},{"internalType":"bytes32","name":"_keyhash","type":"bytes32"}],"stateMutability":"nonpayable","type":"constructor"},{"anonymous":false,"inputs":[{"indexed":false,"internalType":"bytes32","name":"requestId","type":"bytes32"}],"name":"PickingWinner","type":"event"},{"anonymous":false,"inputs":[{"indexed":false,"internalType":"uint256","name":"playerCount","type":"uint256"}],"name":"PlayerEntered","type":"event"},{"anonymous":false,"inputs":[{"indexed":false,"internalType":"string","name":"state","type":"string"}],"name":"StateChange","type":"event"},{"inputs":[],"name":"endLottery","outputs":[],"stateMutability":"nonpayable","type":"function"},{"inputs":[],"name":"enterLottery","outputs":[],"stateMutability":"payable","type":"function"},{"inputs":[],"name":"getParticipantsLength","outputs":[{"internalType":"uint256","name":"","type":"uint256"}],"stateMutability":"view","type":"function"},{"inputs":[],"name":"lastWinnerData","outputs":[{"internalType":"address payable","name":"lastWinner","type":"address"},{"internalType":"uint256","name":"etherWonByLastWinner","type":"uint256"},{"internalType":"uint256","name":"playersInLastLottery","type":"uint256"}],"stateMutability":"view","type":"function"},{"inputs":[],"name":"owner","outputs":[{"internalType":"address","name":"","type":"address"}],"stateMutability":"view","type":"function"},{"inputs":[{"internalType":"uint256","name":"","type":"uint256"}],"name":"participants","outputs":[{"internalType":"address payable","name":"","type":"address"}],"stateMutability":"view","type":"function"},{"inputs":[],"name":"randomResult","outputs":[{"internalType":"uint256","name":"","type":"uint256"}],"stateMutability":"view","type":"function"},{"inputs":[{"internalType":"bytes32","name":"requestId","type":"bytes32"},{"internalType":"uint256","name":"randomness","type":"uint256"}],"name":"rawFulfillRandomness","outputs":[],"stateMutability":"nonpayable","type":"function"},{"inputs":[],"name":"startLottery","outputs":[],"stateMutability":"nonpayable","type":"function"},{"inputs":[],"name":"state","outputs":[{"internalType":"enum Lottery.LOTTERY_STATE","name":"","type":"uint8"}],"stateMutability":"view","type":"function"}],"bytecode":"0x60c06040526001600960146101000a81548160ff021916908360028111156200002d576200002c62000287565b5b02179055503480156200003f57600080fd5b506040516200237a3803806200237a8339818101604052810190620000659190620001b7565b83838173ffffffffffffffffffffffffffffffffffffffff1660a08173ffffffffffffffffffffffffffffffffffffffff1660601b815250508073ffffffffffffffffffffffffffffffffffffffff1660808173ffffffffffffffffffffffffffffffffffffffff1660601b81525050505084600160006101000a81548173ffffffffffffffffffffffffffffffffffffffff021916908373ffffffffffffffffffffffffffffffffffffffff160217905550806002819055508160038190555033600960006101000a81548173ffffffffffffffffffffffffffffffffffffffff021916908373ffffffffffffffffffffffffffffffffffffffff160217905550505050505062000309565b6000815190506200018381620002bb565b92915050565b6000815190506200019a81620002d5565b92915050565b600081519050620001b181620002ef565b92915050565b600080600080600060a08688031215620001d657620001d5620002b6565b5b6000620001e68882890162000172565b9550506020620001f98882890162000172565b94505060406200020c8882890162000172565b93505060606200021f88828901620001a0565b9250506080620002328882890162000189565b9150509295509295909350565b60006200024c826200025d565b9050919050565b6000819050919050565b600073ffffffffffffffffffffffffffffffffffffffff82169050919050565b6000819050919050565b7f4e487b7100000000000000000000000000000000000000000000000000000000600052602160045260246000fd5b600080fd5b620002c6816200023f565b8114620002d257600080fd5b50565b620002e08162000253565b8114620002ec57600080fd5b50565b620002fa816200027d565b81146200030657600080fd5b50565b60805160601c60a05160601c6120306200034a600039600081816108470152610bc90152600081816102a2015281816104b70152610b8d01526120306000f3fe6080604052600436106100915760003560e01c8063808a242b11610059578063808a242b146101575780638da5cb5b1461018457806394985ddd146101af578063c19d93fb146101d8578063c1af57851461020357610091565b80631593a8c714610096578063160344e2146100ad57806335c1d349146100c457806342619f661461010157806376ab5af61461012c575b600080fd5b3480156100a257600080fd5b506100ab61020d565b005b3480156100b957600080fd5b506100c261062d565b005b3480156100d057600080fd5b506100eb60048036038101906100e69190611247565b610795565b6040516100f891906115cf565b60405180910390f35b34801561010d57600080fd5b506101166107d4565b6040516101239190611885565b60405180910390f35b34801561013857600080fd5b506101416107da565b60405161014e9190611885565b60405180910390f35b34801561016357600080fd5b5061016c6107e7565b60405161017b939291906115ea565b60405180910390f35b34801561019057600080fd5b5061019961081f565b6040516101a691906115b4565b60405180910390f35b3480156101bb57600080fd5b506101d660048036038101906101d19190611207565b610845565b005b3480156101e457600080fd5b506101ed6108e1565b6040516101fa91906116e8565b60405180910390f35b61020b6108f4565b005b600960009054906101000a900473ffffffffffffffffffffffffffffffffffffffff1673ffffffffffffffffffffffffffffffffffffffff163373ffffffffffffffffffffffffffffffffffffffff161461029d576040517f08c379a000000000000000000000000000000000000000000000000000000000815260040161029490611765565b60405180910390fd5b6003547f000000000000000000000000000000000000000000000000000000000000000073ffffffffffffffffffffffffffffffffffffffff166370a08231306040518263ffffffff1660e01b81526004016102f991906115b4565b60206040518083038186803b15801561031157600080fd5b505afa158015610325573d6000803e3d6000fd5b505050506040513d601f19601f820116820180604052508101906103499190611274565b101561038a576040517f08c379a000000000000000000000000000000000000000000000000000000000815260040161038190611745565b60405180910390fd5b6000600281111561039e5761039d611c4f565b5b600960149054906101000a900460ff1660028111156103c0576103bf611c4f565b5b14610400576040517f08c379a00000000000000000000000000000000000000000000000000000000081526004016103f7906117a5565b60405180910390fd5b60006004805490501415610449576040517f08c379a000000000000000000000000000000000000000000000000000000000815260040161044090611805565b60405180910390fd5b6002600960146101000a81548160ff0219169083600281111561046f5761046e611c4f565b5b02179055506104b26040518060400160405280600c81526020017f4c494e4b2042616c616e63650000000000000000000000000000000000000000815250610a57565b6105637f000000000000000000000000000000000000000000000000000000000000000073ffffffffffffffffffffffffffffffffffffffff166370a08231306040518263ffffffff1660e01b815260040161050e91906115b4565b60206040518083038186803b15801561052657600080fd5b505afa15801561053a573d6000803e3d6000fd5b505050506040513d601f19601f8201168201806040525081019061055e9190611274565b610af0565b6105a16040518060400160405280600381526020017f4665650000000000000000000000000000000000000000000000000000000000815250610a57565b6105ac600354610af0565b60006105bc600254600354610b89565b90507f6fd8222bb1a1346eff3df8e6cb95d56d8acc1eb50d1af465f9e1fe6854eb2b7a816040516105ed919061165f565b60405180910390a17ffe826ea67a9f78973559f193d27bef0a395981ca89d1cebd4b7561735bc9b20960405161062290611725565b60405180910390a150565b600960009054906101000a900473ffffffffffffffffffffffffffffffffffffffff1673ffffffffffffffffffffffffffffffffffffffff163373ffffffffffffffffffffffffffffffffffffffff16146106bd576040517f08c379a00000000000000000000000000000000000000000000000000000000081526004016106b490611765565b60405180910390fd5b600160028111156106d1576106d0611c4f565b5b600960149054906101000a900460ff1660028111156106f3576106f2611c4f565b5b14610733576040517f08c379a000000000000000000000000000000000000000000000000000000000815260040161072a90611785565b60405180910390fd5b6000600960146101000a81548160ff0219169083600281111561075957610758611c4f565b5b02179055507ffe826ea67a9f78973559f193d27bef0a395981ca89d1cebd4b7561735bc9b20960405161078b90611845565b60405180910390a1565b600481815481106107a557600080fd5b906000526020600020016000915054906101000a900473ffffffffffffffffffffffffffffffffffffffff1681565b60055481565b6000600480549050905090565b60068060000160009054906101000a900473ffffffffffffffffffffffffffffffffffffffff16908060010154908060020154905083565b600960009054906101000a900473ffffffffffffffffffffffffffffffffffffffff1681565b7f000000000000000000000000000000000000000000000000000000000000000073ffffffffffffffffffffffffffffffffffffffff163373ffffffffffffffffffffffffffffffffffffffff16146108d3576040517f08c379a00000000000000000000000000000000000000000000000000000000081526004016108ca906117c5565b60405180910390fd5b6108dd8282610ce8565b5050565b600960149054906101000a900460ff1681565b6000600281111561090857610907611c4f565b5b600960149054906101000a900460ff16600281111561092a57610929611c4f565b5b1461096a576040517f08c379a000000000000000000000000000000000000000000000000000000000815260040161096190611825565b60405180910390fd5b603261097534610f22565b10156109b6576040517f08c379a00000000000000000000000000000000000000000000000000000000081526004016109ad90611865565b60405180910390fd5b6004339080600181540180825580915050600190039060005260206000200160009091909190916101000a81548173ffffffffffffffffffffffffffffffffffffffff021916908373ffffffffffffffffffffffffffffffffffffffff1602179055507f8d2fadce8f12cf4b8f0f407983d7c2c84aa1068c25c8f4fe07840cd1b55de9e5600480549050604051610a4d9190611885565b60405180910390a1565b610aed81604051602401610a6b9190611703565b6040516020818303038152906040527f41304fac000000000000000000000000000000000000000000000000000000007bffffffffffffffffffffffffffffffffffffffffffffffffffffffff19166020820180517bffffffffffffffffffffffffffffffffffffffffffffffffffffffff8381831617835250505050610f5d565b50565b610b8681604051602401610b049190611885565b6040516020818303038152906040527ff5b1bba9000000000000000000000000000000000000000000000000000000007bffffffffffffffffffffffffffffffffffffffffffffffffffffffff19166020820180517bffffffffffffffffffffffffffffffffffffffffffffffffffffffff8381831617835250505050610f5d565b50565b60007f000000000000000000000000000000000000000000000000000000000000000073ffffffffffffffffffffffffffffffffffffffff16634000aea07f000000000000000000000000000000000000000000000000000000000000000084866000604051602001610bfd92919061167a565b6040516020818303038152906040526040518463ffffffff1660e01b8152600401610c2a93929190611621565b602060405180830381600087803b158015610c4457600080fd5b505af1158015610c58573d6000803e3d6000fd5b505050506040513d601f19601f82011682018060405250810190610c7c91906111da565b506000610c9e8460003060008089815260200190815260200160002054610f86565b9050600160008086815260200190815260200160002054610cbf91906118d8565b60008086815260200190815260200160002081905550610cdf8482610fc2565b91505092915050565b600060048054905082610cfb9190611bc0565b9050604051806060016040528060048381548110610d1c57610d1b611c7e565b5b9060005260206000200160009054906101000a900473ffffffffffffffffffffffffffffffffffffffff1673ffffffffffffffffffffffffffffffffffffffff168152602001478152602001600480549050815250600660008201518160000160006101000a81548173ffffffffffffffffffffffffffffffffffffffff021916908373ffffffffffffffffffffffffffffffffffffffff160217905550602082015181600101556040820151816002015590505060048181548110610de557610de4611c7e565b5b9060005260206000200160009054906101000a900473ffffffffffffffffffffffffffffffffffffffff1673ffffffffffffffffffffffffffffffffffffffff166108fc479081150290604051600060405180830381858888f19350505050158015610e55573d6000803e3d6000fd5b50600067ffffffffffffffff811115610e7157610e70611cad565b5b604051908082528060200260200182016040528015610e9f5781602001602082028036833780820191505090505b5060049080519060200190610eb59291906110b5565b506001600960146101000a81548160ff02191690836002811115610edc57610edb611c4f565b5b0217905550816005819055507ffe826ea67a9f78973559f193d27bef0a395981ca89d1cebd4b7561735bc9b209604051610f15906117e5565b60405180910390a1505050565b600080610f2d610ff5565b90506ec097ce7bc90715b34b9f10000000008382610f4b9190611a76565b610f55919061192e565b915050919050565b60008151905060006a636f6e736f6c652e6c6f679050602083016000808483855afa5050505050565b600084848484604051602001610f9f94939291906116a3565b6040516020818303038152906040528051906020012060001c9050949350505050565b60008282604051602001610fd7929190611588565b60405160208183030381529060405280519060200120905092915050565b600080600160009054906101000a900473ffffffffffffffffffffffffffffffffffffffff1673ffffffffffffffffffffffffffffffffffffffff1663feaf968c6040518163ffffffff1660e01b815260040160a06040518083038186803b15801561106057600080fd5b505afa158015611074573d6000803e3d6000fd5b505050506040513d601f19601f8201168201806040525081019061109891906112a1565b5050509150506402540be400816110af919061195f565b91505090565b82805482825590600052602060002090810192821561112e579160200282015b8281111561112d5782518260006101000a81548173ffffffffffffffffffffffffffffffffffffffff021916908373ffffffffffffffffffffffffffffffffffffffff160217905550916020019190600101906110d5565b5b50905061113b919061113f565b5090565b5b80821115611158576000816000905550600101611140565b5090565b60008151905061116b81611f87565b92915050565b60008135905061118081611f9e565b92915050565b60008151905061119581611fb5565b92915050565b6000813590506111aa81611fcc565b92915050565b6000815190506111bf81611fcc565b92915050565b6000815190506111d481611fe3565b92915050565b6000602082840312156111f0576111ef611cdc565b5b60006111fe8482850161115c565b91505092915050565b6000806040838503121561121e5761121d611cdc565b5b600061122c85828601611171565b925050602061123d8582860161119b565b9150509250929050565b60006020828403121561125d5761125c611cdc565b5b600061126b8482850161119b565b91505092915050565b60006020828403121561128a57611289611cdc565b5b6000611298848285016111b0565b91505092915050565b600080600080600060a086880312156112bd576112bc611cdc565b5b60006112cb888289016111c5565b95505060206112dc88828901611186565b94505060406112ed888289016111b0565b93505060606112fe888289016111b0565b925050608061130f888289016111c5565b9150509295509295909350565b61132581611ae2565b82525050565b61133481611ad0565b82525050565b61134381611b00565b82525050565b61135a61135582611b00565b611bac565b82525050565b600061136b826118a0565b61137581856118b6565b9350611385818560208601611b79565b61138e81611ce1565b840191505092915050565b6113a281611b67565b82525050565b60006113b3826118ab565b6113bd81856118c7565b93506113cd818560208601611b79565b6113d681611ce1565b840191505092915050565b60006113ee600e836118c7565b91506113f982611cf2565b602082019050919050565b6000611411602b836118c7565b915061141c82611d1b565b604082019050919050565b6000611434602b836118c7565b915061143f82611d6a565b604082019050919050565b60006114576033836118c7565b915061146282611db9565b604082019050919050565b600061147a601a836118c7565b915061148582611e08565b602082019050919050565b600061149d601f836118c7565b91506114a882611e31565b602082019050919050565b60006114c06006836118c7565b91506114cb82611e5a565b602082019050919050565b60006114e36027836118c7565b91506114ee82611e83565b604082019050919050565b60006115066032836118c7565b915061151182611ed2565b604082019050919050565b60006115296004836118c7565b915061153482611f21565b602082019050919050565b600061154c601f836118c7565b915061155782611f4a565b602082019050919050565b61156b81611b47565b82525050565b61158261157d82611b47565b611bb6565b82525050565b60006115948285611349565b6020820191506115a48284611571565b6020820191508190509392505050565b60006020820190506115c9600083018461132b565b92915050565b60006020820190506115e4600083018461131c565b92915050565b60006060820190506115ff600083018661131c565b61160c6020830185611562565b6116196040830184611562565b949350505050565b6000606082019050611636600083018661132b565b6116436020830185611562565b81810360408301526116558184611360565b9050949350505050565b6000602082019050611674600083018461133a565b92915050565b600060408201905061168f600083018561133a565b61169c6020830184611562565b9392505050565b60006080820190506116b8600083018761133a565b6116c56020830186611562565b6116d2604083018561132b565b6116df6060830184611562565b95945050505050565b60006020820190506116fd6000830184611399565b92915050565b6000602082019050818103600083015261171d81846113a8565b905092915050565b6000602082019050818103600083015261173e816113e1565b9050919050565b6000602082019050818103600083015261175e81611404565b9050919050565b6000602082019050818103600083015261177e81611427565b9050919050565b6000602082019050818103600083015261179e8161144a565b9050919050565b600060208201905081810360008301526117be8161146d565b9050919050565b600060208201905081810360008301526117de81611490565b9050919050565b600060208201905081810360008301526117fe816114b3565b9050919050565b6000602082019050818103600083015261181e816114d6565b9050919050565b6000602082019050818103600083015261183e816114f9565b9050919050565b6000602082019050818103600083015261185e8161151c565b9050919050565b6000602082019050818103600083015261187e8161153f565b9050919050565b600060208201905061189a6000830184611562565b92915050565b600081519050919050565b600081519050919050565b600082825260208201905092915050565b600082825260208201905092915050565b60006118e382611b47565b91506118ee83611b47565b9250827fffffffffffffffffffffffffffffffffffffffffffffffffffffffffffffffff0382111561192357611922611bf1565b5b828201905092915050565b600061193982611b47565b915061194483611b47565b92508261195457611953611c20565b5b828204905092915050565b600061196a82611b1d565b915061197583611b1d565b9250827f7fffffffffffffffffffffffffffffffffffffffffffffffffffffffffffffff04821160008413600084131616156119b4576119b3611bf1565b5b817f800000000000000000000000000000000000000000000000000000000000000005831260008412600084131616156119f1576119f0611bf1565b5b827f80000000000000000000000000000000000000000000000000000000000000000582126000841360008412161615611a2e57611a2d611bf1565b5b827f7fffffffffffffffffffffffffffffffffffffffffffffffffffffffffffffff0582126000841260008412161615611a6b57611a6a611bf1565b5b828202905092915050565b6000611a8182611b47565b9150611a8c83611b47565b9250817fffffffffffffffffffffffffffffffffffffffffffffffffffffffffffffffff0483118215151615611ac557611ac4611bf1565b5b828202905092915050565b6000611adb82611b27565b9050919050565b6000611aed82611b27565b9050919050565b60008115159050919050565b6000819050919050565b6000819050611b1882611f73565b919050565b6000819050919050565b600073ffffffffffffffffffffffffffffffffffffffff82169050919050565b6000819050919050565b600069ffffffffffffffffffff82169050919050565b6000611b7282611b0a565b9050919050565b60005b83811015611b97578082015181840152602081019050611b7c565b83811115611ba6576000848401525b50505050565b6000819050919050565b6000819050919050565b6000611bcb82611b47565b9150611bd683611b47565b925082611be657611be5611c20565b5b828206905092915050565b7f4e487b7100000000000000000000000000000000000000000000000000000000600052601160045260246000fd5b7f4e487b7100000000000000000000000000000000000000000000000000000000600052601260045260246000fd5b7f4e487b7100000000000000000000000000000000000000000000000000000000600052602160045260246000fd5b7f4e487b7100000000000000000000000000000000000000000000000000000000600052603260045260246000fd5b7f4e487b7100000000000000000000000000000000000000000000000000000000600052604160045260246000fd5b600080fd5b6000601f19601f8301169050919050565b7f5049434b494e475f57494e4e4552000000000000000000000000000000000000600082015250565b7f4e6f7420656e6f756768204c494e4b202d2066696c6c20636f6e74726163742060008201527f7769746820666175636574000000000000000000000000000000000000000000602082015250565b7f596f75206d75737420626520746865206f776e657220746f2063616c6c20746860008201527f69732066756e6374696f6e000000000000000000000000000000000000000000602082015250565b7f4c6f7474657279207374617465206d75737420626520636c6f73656420746f2060008201527f73746172742061206e6577206c6f747465727900000000000000000000000000602082015250565b7f4c6f7474657279206d75737420626520696e2070726f63657373000000000000600082015250565b7f4f6e6c7920565246436f6f7264696e61746f722063616e2066756c66696c6c00600082015250565b7f434c4f5345440000000000000000000000000000000000000000000000000000600082015250565b7f4d7573742068617665207061727469636970616e747320746f207069636b206160008201527f2077696e6e657200000000000000000000000000000000000000000000000000602082015250565b7f43616e277420656e746572206120636c6f736564206c6f74746572792c206c6f60008201527f7474657279206d757374206265206f70656e0000000000000000000000000000602082015250565b7f4f50454e00000000000000000000000000000000000000000000000000000000600082015250565b7f4e65656420746f2073656e6420243530206f72206d6f726520696e2045544800600082015250565b60038110611f8457611f83611c4f565b5b50565b611f9081611af4565b8114611f9b57600080fd5b50565b611fa781611b00565b8114611fb257600080fd5b50565b611fbe81611b1d565b8114611fc957600080fd5b50565b611fd581611b47565b8114611fe057600080fd5b50565b611fec81611b51565b8114611ff757600080fd5b5056fea26469706673582212209e96b169de83f2ceb1f721ddfe17bc9534fdb2f766ac3e7ff0e60ab5ecbd619264736f6c63430008070033","linkReferences":{},"deployedLinkReferences":{}}