{"_format":"hh-sol-artifact-1","contractName":"Lottery","sourceName":"contracts/Lottery.sol","abi":[{"inputs":[{"internalType":"address","name":"_priceFeedAddress","type":"address"},{"internalType":"address","name":"_vrfCoordinator","type":"address"},{"internalType":"address","name":"_link","type":"address"},{"internalType":"uint256","name":"_fee","type":"uint256"},{"internalType":"bytes32","name":"_keyhash","type":"bytes32"}],"stateMutability":"nonpayable","type":"constructor"},{"anonymous":false,"inputs":[{"indexed":false,"internalType":"bytes32","name":"requestId","type":"bytes32"}],"name":"PickingWinner","type":"event"},{"anonymous":false,"inputs":[],"name":"PlayerEntered","type":"event"},{"anonymous":false,"inputs":[{"indexed":false,"internalType":"string","name":"state","type":"string"}],"name":"StateChange","type":"event"},{"inputs":[],"name":"emitEvent","outputs":[],"stateMutability":"nonpayable","type":"function"},{"inputs":[],"name":"endLottery","outputs":[],"stateMutability":"nonpayable","type":"function"},{"inputs":[],"name":"enterLottery","outputs":[],"stateMutability":"payable","type":"function"},{"inputs":[],"name":"lastWinner","outputs":[{"internalType":"address","name":"","type":"address"}],"stateMutability":"view","type":"function"},{"inputs":[{"internalType":"uint256","name":"","type":"uint256"}],"name":"participants","outputs":[{"internalType":"address","name":"","type":"address"}],"stateMutability":"view","type":"function"},{"inputs":[],"name":"randomResult","outputs":[{"internalType":"uint256","name":"","type":"uint256"}],"stateMutability":"view","type":"function"},{"inputs":[{"internalType":"bytes32","name":"requestId","type":"bytes32"},{"internalType":"uint256","name":"randomness","type":"uint256"}],"name":"rawFulfillRandomness","outputs":[],"stateMutability":"nonpayable","type":"function"},{"inputs":[],"name":"startLottery","outputs":[],"stateMutability":"nonpayable","type":"function"},{"inputs":[],"name":"state","outputs":[{"internalType":"enum Lottery.LOTTERY_STATE","name":"","type":"uint8"}],"stateMutability":"view","type":"function"}],"bytecode":"0x60c06040526001600660146101000a81548160ff021916908360028111156200002d576200002c62000246565b5b02179055503480156200003f57600080fd5b5060405162001ee238038062001ee2833981810160405281019062000065919062000176565b83838173ffffffffffffffffffffffffffffffffffffffff1660a08173ffffffffffffffffffffffffffffffffffffffff1660601b815250508073ffffffffffffffffffffffffffffffffffffffff1660808173ffffffffffffffffffffffffffffffffffffffff1660601b81525050505084600160006101000a81548173ffffffffffffffffffffffffffffffffffffffff021916908373ffffffffffffffffffffffffffffffffffffffff16021790555080600281905550816003819055505050505050620002c8565b60008151905062000142816200027a565b92915050565b600081519050620001598162000294565b92915050565b6000815190506200017081620002ae565b92915050565b600080600080600060a0868803121562000195576200019462000275565b5b6000620001a58882890162000131565b9550506020620001b88882890162000131565b9450506040620001cb8882890162000131565b9350506060620001de888289016200015f565b9250506080620001f18882890162000148565b9150509295509295909350565b60006200020b826200021c565b9050919050565b6000819050919050565b600073ffffffffffffffffffffffffffffffffffffffff82169050919050565b6000819050919050565b7f4e487b7100000000000000000000000000000000000000000000000000000000600052602160045260246000fd5b600080fd5b6200028581620001fe565b81146200029157600080fd5b50565b6200029f8162000212565b8114620002ab57600080fd5b50565b620002b9816200023c565b8114620002c557600080fd5b50565b60805160601c60a05160601c611be0620003026000396000818161057901526107df0152600081816101cf01526107a30152611be06000f3fe6080604052600436106100865760003560e01c80637b0cb839116100595780637b0cb8391461012157806394985ddd14610138578063c19d93fb14610161578063c1af57851461018c578063fe1881841461019657610086565b80631593a8c71461008b578063160344e2146100a257806335c1d349146100b957806342619f66146100f6575b600080fd5b34801561009757600080fd5b506100a06101c1565b005b3480156100ae57600080fd5b506100b761042c565b005b3480156100c557600080fd5b506100e060048036038101906100db9190610efc565b610504565b6040516100ed9190611237565b60405180910390f35b34801561010257600080fd5b5061010b610543565b6040516101189190611496565b60405180910390f35b34801561012d57600080fd5b50610136610549565b005b34801561014457600080fd5b5061015f600480360381019061015a9190610ebc565b610577565b005b34801561016d57600080fd5b50610176610613565b6040516101839190611319565b60405180910390f35b610194610626565b005b3480156101a257600080fd5b506101ab610779565b6040516101b89190611237565b60405180910390f35b600354670de0b6b3a76400007f000000000000000000000000000000000000000000000000000000000000000073ffffffffffffffffffffffffffffffffffffffff166370a08231306040518263ffffffff1660e01b81526004016102269190611237565b60206040518083038186803b15801561023e57600080fd5b505afa158015610252573d6000803e3d6000fd5b505050506040513d601f19601f820116820180604052508101906102769190610f29565b6102809190611687565b10156102c1576040517f08c379a00000000000000000000000000000000000000000000000000000000081526004016102b890611376565b60405180910390fd5b600060028111156102d5576102d461184e565b5b600660149054906101000a900460ff1660028111156102f7576102f661184e565b5b14610337576040517f08c379a000000000000000000000000000000000000000000000000000000000815260040161032e906113b6565b60405180910390fd5b60006004805490501415610380576040517f08c379a000000000000000000000000000000000000000000000000000000000815260040161037790611416565b60405180910390fd5b6002600660146101000a81548160ff021916908360028111156103a6576103a561184e565b5b021790555060006103bb60025460035461079f565b90507f6fd8222bb1a1346eff3df8e6cb95d56d8acc1eb50d1af465f9e1fe6854eb2b7a816040516103ec9190611290565b60405180910390a17ffe826ea67a9f78973559f193d27bef0a395981ca89d1cebd4b7561735bc9b20960405161042190611356565b60405180910390a150565b600160028111156104405761043f61184e565b5b600660149054906101000a900460ff1660028111156104625761046161184e565b5b146104a2576040517f08c379a000000000000000000000000000000000000000000000000000000000815260040161049990611396565b60405180910390fd5b6000600660146101000a81548160ff021916908360028111156104c8576104c761184e565b5b02179055507ffe826ea67a9f78973559f193d27bef0a395981ca89d1cebd4b7561735bc9b2096040516104fa90611456565b60405180910390a1565b6004818154811061051457600080fd5b906000526020600020016000915054906101000a900473ffffffffffffffffffffffffffffffffffffffff1681565b60055481565b7f0d02a7228f7445b79385af89ae273e0bfc8babce9fe11b925dc0790593b7f50560405160405180910390a1565b7f000000000000000000000000000000000000000000000000000000000000000073ffffffffffffffffffffffffffffffffffffffff163373ffffffffffffffffffffffffffffffffffffffff1614610605576040517f08c379a00000000000000000000000000000000000000000000000000000000081526004016105fc906113d6565b60405180910390fd5b61060f82826108fe565b5050565b600660149054906101000a900460ff1681565b6000600281111561063a5761063961184e565b5b600660149054906101000a900460ff16600281111561065c5761065b61184e565b5b1461069c576040517f08c379a000000000000000000000000000000000000000000000000000000000815260040161069390611436565b60405180910390fd5b60326106a734610aa5565b10156106e8576040517f08c379a00000000000000000000000000000000000000000000000000000000081526004016106df90611476565b60405180910390fd5b6004339080600181540180825580915050600190039060005260206000200160009091909190916101000a81548173ffffffffffffffffffffffffffffffffffffffff021916908373ffffffffffffffffffffffffffffffffffffffff1602179055507f0d02a7228f7445b79385af89ae273e0bfc8babce9fe11b925dc0790593b7f50560405160405180910390a1565b600660009054906101000a900473ffffffffffffffffffffffffffffffffffffffff1681565b60007f000000000000000000000000000000000000000000000000000000000000000073ffffffffffffffffffffffffffffffffffffffff16634000aea07f0000000000000000000000000000000000000000000000000000000000000000848660006040516020016108139291906112ab565b6040516020818303038152906040526040518463ffffffff1660e01b815260040161084093929190611252565b602060405180830381600087803b15801561085a57600080fd5b505af115801561086e573d6000803e3d6000fd5b505050506040513d601f19601f820116820180604052508101906108929190610e8f565b5060006108b48460003060008089815260200190815260200160002054610ae0565b90506001600080868152602001908152602001600020546108d591906114e9565b600080868152602001908152602001600020819055506108f58482610b1c565b91505092915050565b60006004805490508261091191906117bf565b9050600481815481106109275761092661187d565b5b9060005260206000200160009054906101000a900473ffffffffffffffffffffffffffffffffffffffff16600660006101000a81548173ffffffffffffffffffffffffffffffffffffffff021916908373ffffffffffffffffffffffffffffffffffffffff160217905550600067ffffffffffffffff8111156109ad576109ac6118ac565b5b6040519080825280602002602001820160405280156109db5781602001602082028036833780820191505090505b50600490805190602001906109f1929190610d6a565b506001600660146101000a81548160ff02191690836002811115610a1857610a1761184e565b5b021790555081600581905550610a626040518060400160405280600a81526020017f52616e646f6d6e65737300000000000000000000000000000000000000000000815250610b4f565b610a6b82610be8565b7ffe826ea67a9f78973559f193d27bef0a395981ca89d1cebd4b7561735bc9b209604051610a98906113f6565b60405180910390a1505050565b600080610ab0610c81565b90506ec097ce7bc90715b34b9f10000000008382610ace9190611687565b610ad8919061153f565b915050919050565b600084848484604051602001610af994939291906112d4565b6040516020818303038152906040528051906020012060001c9050949350505050565b60008282604051602001610b3192919061120b565b60405160208183030381529060405280519060200120905092915050565b610be581604051602401610b639190611334565b6040516020818303038152906040527f41304fac000000000000000000000000000000000000000000000000000000007bffffffffffffffffffffffffffffffffffffffffffffffffffffffff19166020820180517bffffffffffffffffffffffffffffffffffffffffffffffffffffffff8381831617835250505050610d41565b50565b610c7e81604051602401610bfc9190611496565b6040516020818303038152906040527ff5b1bba9000000000000000000000000000000000000000000000000000000007bffffffffffffffffffffffffffffffffffffffffffffffffffffffff19166020820180517bffffffffffffffffffffffffffffffffffffffffffffffffffffffff8381831617835250505050610d41565b50565b600080600160009054906101000a900473ffffffffffffffffffffffffffffffffffffffff1673ffffffffffffffffffffffffffffffffffffffff1663feaf968c6040518163ffffffff1660e01b815260040160a06040518083038186803b158015610cec57600080fd5b505afa158015610d00573d6000803e3d6000fd5b505050506040513d601f19601f82011682018060405250810190610d249190610f56565b5050509150506402540be40081610d3b9190611570565b91505090565b60008151905060006a636f6e736f6c652e6c6f679050602083016000808483855afa5050505050565b828054828255906000526020600020908101928215610de3579160200282015b82811115610de25782518260006101000a81548173ffffffffffffffffffffffffffffffffffffffff021916908373ffffffffffffffffffffffffffffffffffffffff16021790555091602001919060010190610d8a565b5b509050610df09190610df4565b5090565b5b80821115610e0d576000816000905550600101610df5565b5090565b600081519050610e2081611b37565b92915050565b600081359050610e3581611b4e565b92915050565b600081519050610e4a81611b65565b92915050565b600081359050610e5f81611b7c565b92915050565b600081519050610e7481611b7c565b92915050565b600081519050610e8981611b93565b92915050565b600060208284031215610ea557610ea46118db565b5b6000610eb384828501610e11565b91505092915050565b60008060408385031215610ed357610ed26118db565b5b6000610ee185828601610e26565b9250506020610ef285828601610e50565b9150509250929050565b600060208284031215610f1257610f116118db565b5b6000610f2084828501610e50565b91505092915050565b600060208284031215610f3f57610f3e6118db565b5b6000610f4d84828501610e65565b91505092915050565b600080600080600060a08688031215610f7257610f716118db565b5b6000610f8088828901610e7a565b9550506020610f9188828901610e3b565b9450506040610fa288828901610e65565b9350506060610fb388828901610e65565b9250506080610fc488828901610e7a565b9150509295509295909350565b610fda816116e1565b82525050565b610fe9816116ff565b82525050565b611000610ffb826116ff565b6117ab565b82525050565b6000611011826114b1565b61101b81856114c7565b935061102b818560208601611778565b611034816118e0565b840191505092915050565b61104881611766565b82525050565b6000611059826114bc565b61106381856114d8565b9350611073818560208601611778565b61107c816118e0565b840191505092915050565b6000611094600e836114d8565b915061109f826118f1565b602082019050919050565b60006110b7602b836114d8565b91506110c28261191a565b604082019050919050565b60006110da6033836114d8565b91506110e582611969565b604082019050919050565b60006110fd601a836114d8565b9150611108826119b8565b602082019050919050565b6000611120601f836114d8565b915061112b826119e1565b602082019050919050565b60006111436006836114d8565b915061114e82611a0a565b602082019050919050565b60006111666027836114d8565b915061117182611a33565b604082019050919050565b60006111896032836114d8565b915061119482611a82565b604082019050919050565b60006111ac6004836114d8565b91506111b782611ad1565b602082019050919050565b60006111cf601f836114d8565b91506111da82611afa565b602082019050919050565b6111ee81611746565b82525050565b61120561120082611746565b6117b5565b82525050565b60006112178285610fef565b60208201915061122782846111f4565b6020820191508190509392505050565b600060208201905061124c6000830184610fd1565b92915050565b60006060820190506112676000830186610fd1565b61127460208301856111e5565b81810360408301526112868184611006565b9050949350505050565b60006020820190506112a56000830184610fe0565b92915050565b60006040820190506112c06000830185610fe0565b6112cd60208301846111e5565b9392505050565b60006080820190506112e96000830187610fe0565b6112f660208301866111e5565b6113036040830185610fd1565b61131060608301846111e5565b95945050505050565b600060208201905061132e600083018461103f565b92915050565b6000602082019050818103600083015261134e818461104e565b905092915050565b6000602082019050818103600083015261136f81611087565b9050919050565b6000602082019050818103600083015261138f816110aa565b9050919050565b600060208201905081810360008301526113af816110cd565b9050919050565b600060208201905081810360008301526113cf816110f0565b9050919050565b600060208201905081810360008301526113ef81611113565b9050919050565b6000602082019050818103600083015261140f81611136565b9050919050565b6000602082019050818103600083015261142f81611159565b9050919050565b6000602082019050818103600083015261144f8161117c565b9050919050565b6000602082019050818103600083015261146f8161119f565b9050919050565b6000602082019050818103600083015261148f816111c2565b9050919050565b60006020820190506114ab60008301846111e5565b92915050565b600081519050919050565b600081519050919050565b600082825260208201905092915050565b600082825260208201905092915050565b60006114f482611746565b91506114ff83611746565b9250827fffffffffffffffffffffffffffffffffffffffffffffffffffffffffffffffff03821115611534576115336117f0565b5b828201905092915050565b600061154a82611746565b915061155583611746565b9250826115655761156461181f565b5b828204905092915050565b600061157b8261171c565b91506115868361171c565b9250827f7fffffffffffffffffffffffffffffffffffffffffffffffffffffffffffffff04821160008413600084131616156115c5576115c46117f0565b5b817f80000000000000000000000000000000000000000000000000000000000000000583126000841260008413161615611602576116016117f0565b5b827f8000000000000000000000000000000000000000000000000000000000000000058212600084136000841216161561163f5761163e6117f0565b5b827f7fffffffffffffffffffffffffffffffffffffffffffffffffffffffffffffff058212600084126000841216161561167c5761167b6117f0565b5b828202905092915050565b600061169282611746565b915061169d83611746565b9250817fffffffffffffffffffffffffffffffffffffffffffffffffffffffffffffffff04831182151516156116d6576116d56117f0565b5b828202905092915050565b60006116ec82611726565b9050919050565b60008115159050919050565b6000819050919050565b600081905061171782611b23565b919050565b6000819050919050565b600073ffffffffffffffffffffffffffffffffffffffff82169050919050565b6000819050919050565b600069ffffffffffffffffffff82169050919050565b600061177182611709565b9050919050565b60005b8381101561179657808201518184015260208101905061177b565b838111156117a5576000848401525b50505050565b6000819050919050565b6000819050919050565b60006117ca82611746565b91506117d583611746565b9250826117e5576117e461181f565b5b828206905092915050565b7f4e487b7100000000000000000000000000000000000000000000000000000000600052601160045260246000fd5b7f4e487b7100000000000000000000000000000000000000000000000000000000600052601260045260246000fd5b7f4e487b7100000000000000000000000000000000000000000000000000000000600052602160045260246000fd5b7f4e487b7100000000000000000000000000000000000000000000000000000000600052603260045260246000fd5b7f4e487b7100000000000000000000000000000000000000000000000000000000600052604160045260246000fd5b600080fd5b6000601f19601f8301169050919050565b7f5049434b494e475f57494e4e4552000000000000000000000000000000000000600082015250565b7f4e6f7420656e6f756768204c494e4b202d2066696c6c20636f6e74726163742060008201527f7769746820666175636574000000000000000000000000000000000000000000602082015250565b7f4c6f7474657279207374617465206d75737420626520636c6f73656420746f2060008201527f73746172742061206e6577206c6f747465727900000000000000000000000000602082015250565b7f4c6f7474657279206d75737420626520696e2070726f63657373000000000000600082015250565b7f4f6e6c7920565246436f6f7264696e61746f722063616e2066756c66696c6c00600082015250565b7f434c4f5345440000000000000000000000000000000000000000000000000000600082015250565b7f4d7573742068617665207061727469636970616e747320746f207069636b206160008201527f2077696e6e657200000000000000000000000000000000000000000000000000602082015250565b7f43616e277420656e746572206120636c6f736564206c6f74746572792c206c6f60008201527f7474657279206d757374206265206f70656e0000000000000000000000000000602082015250565b7f4f50454e00000000000000000000000000000000000000000000000000000000600082015250565b7f4e65656420746f2073656e6420243530206f72206d6f726520696e2045544800600082015250565b60038110611b3457611b3361184e565b5b50565b611b40816116f3565b8114611b4b57600080fd5b50565b611b57816116ff565b8114611b6257600080fd5b50565b611b6e8161171c565b8114611b7957600080fd5b50565b611b8581611746565b8114611b9057600080fd5b50565b611b9c81611750565b8114611ba757600080fd5b5056fea264697066735822122037bd07999bbf7ff639b118de739364d114a2dd97bb79accf3649d52ffa0ec56164736f6c63430008070033","linkReferences":{},"deployedLinkReferences":{}}