{"_format":"hh-sol-artifact-1","contractName":"Lottery","sourceName":"contracts/Lottery.sol","abi":[{"inputs":[{"internalType":"address","name":"_priceFeedAddress","type":"address"},{"internalType":"address","name":"_vrfCoordinator","type":"address"},{"internalType":"address","name":"_link","type":"address"},{"internalType":"uint256","name":"_fee","type":"uint256"},{"internalType":"bytes32","name":"_keyhash","type":"bytes32"}],"stateMutability":"nonpayable","type":"constructor"},{"anonymous":false,"inputs":[{"indexed":false,"internalType":"bytes32","name":"requestId","type":"bytes32"}],"name":"PickingWinner","type":"event"},{"anonymous":false,"inputs":[],"name":"PlayerEntered","type":"event"},{"anonymous":false,"inputs":[{"indexed":false,"internalType":"string","name":"state","type":"string"}],"name":"StateChange","type":"event"},{"inputs":[],"name":"emitEvent","outputs":[],"stateMutability":"nonpayable","type":"function"},{"inputs":[],"name":"endLottery","outputs":[],"stateMutability":"nonpayable","type":"function"},{"inputs":[],"name":"enterLottery","outputs":[],"stateMutability":"payable","type":"function"},{"inputs":[],"name":"lastWinner","outputs":[{"internalType":"address","name":"","type":"address"}],"stateMutability":"view","type":"function"},{"inputs":[{"internalType":"uint256","name":"","type":"uint256"}],"name":"participants","outputs":[{"internalType":"address","name":"","type":"address"}],"stateMutability":"view","type":"function"},{"inputs":[],"name":"randomResult","outputs":[{"internalType":"uint256","name":"","type":"uint256"}],"stateMutability":"view","type":"function"},{"inputs":[{"internalType":"bytes32","name":"requestId","type":"bytes32"},{"internalType":"uint256","name":"randomness","type":"uint256"}],"name":"rawFulfillRandomness","outputs":[],"stateMutability":"nonpayable","type":"function"},{"inputs":[],"name":"startLottery","outputs":[],"stateMutability":"nonpayable","type":"function"},{"inputs":[],"name":"state","outputs":[{"internalType":"enum Lottery.LOTTERY_STATE","name":"","type":"uint8"}],"stateMutability":"view","type":"function"}],"bytecode":"0x60c06040526001600660146101000a81548160ff021916908360028111156200002d576200002c62000246565b5b02179055503480156200003f57600080fd5b5060405162001f5738038062001f57833981810160405281019062000065919062000176565b83838173ffffffffffffffffffffffffffffffffffffffff1660a08173ffffffffffffffffffffffffffffffffffffffff1660601b815250508073ffffffffffffffffffffffffffffffffffffffff1660808173ffffffffffffffffffffffffffffffffffffffff1660601b81525050505084600160006101000a81548173ffffffffffffffffffffffffffffffffffffffff021916908373ffffffffffffffffffffffffffffffffffffffff16021790555080600281905550816003819055505050505050620002c8565b60008151905062000142816200027a565b92915050565b600081519050620001598162000294565b92915050565b6000815190506200017081620002ae565b92915050565b600080600080600060a0868803121562000195576200019462000275565b5b6000620001a58882890162000131565b9550506020620001b88882890162000131565b9450506040620001cb8882890162000131565b9350506060620001de888289016200015f565b9250506080620001f18882890162000148565b9150509295509295909350565b60006200020b826200021c565b9050919050565b6000819050919050565b600073ffffffffffffffffffffffffffffffffffffffff82169050919050565b6000819050919050565b7f4e487b7100000000000000000000000000000000000000000000000000000000600052602160045260246000fd5b600080fd5b6200028581620001fe565b81146200029157600080fd5b50565b6200029f8162000212565b8114620002ab57600080fd5b50565b620002b9816200023c565b8114620002c557600080fd5b50565b60805160601c60a05160601c611c55620003026000396000818161058201526107e80152600081816101cf01526107ac0152611c556000f3fe6080604052600436106100865760003560e01c80637b0cb839116100595780637b0cb8391461012157806394985ddd14610138578063c19d93fb14610161578063c1af57851461018c578063fe1881841461019657610086565b80631593a8c71461008b578063160344e2146100a257806335c1d349146100b957806342619f66146100f6575b600080fd5b34801561009757600080fd5b506100a06101c1565b005b3480156100ae57600080fd5b506100b761042c565b005b3480156100c557600080fd5b506100e060048036038101906100db9190610f05565b610504565b6040516100ed9190611263565b60405180910390f35b34801561010257600080fd5b5061010b610543565b60405161011891906114e2565b60405180910390f35b34801561012d57600080fd5b50610136610549565b005b34801561014457600080fd5b5061015f600480360381019061015a9190610ec5565b610580565b005b34801561016d57600080fd5b5061017661061c565b6040516101839190611345565b60405180910390f35b61019461062f565b005b3480156101a257600080fd5b506101ab610782565b6040516101b89190611263565b60405180910390f35b600354670de0b6b3a76400007f000000000000000000000000000000000000000000000000000000000000000073ffffffffffffffffffffffffffffffffffffffff166370a08231306040518263ffffffff1660e01b81526004016102269190611263565b60206040518083038186803b15801561023e57600080fd5b505afa158015610252573d6000803e3d6000fd5b505050506040513d601f19601f820116820180604052508101906102769190610f32565b61028091906116d3565b10156102c1576040517f08c379a00000000000000000000000000000000000000000000000000000000081526004016102b8906113a2565b60405180910390fd5b600060028111156102d5576102d461189a565b5b600660149054906101000a900460ff1660028111156102f7576102f661189a565b5b14610337576040517f08c379a000000000000000000000000000000000000000000000000000000000815260040161032e90611402565b60405180910390fd5b60006004805490501415610380576040517f08c379a000000000000000000000000000000000000000000000000000000000815260040161037790611462565b60405180910390fd5b6002600660146101000a81548160ff021916908360028111156103a6576103a561189a565b5b021790555060006103bb6002546003546107a8565b90507f6fd8222bb1a1346eff3df8e6cb95d56d8acc1eb50d1af465f9e1fe6854eb2b7a816040516103ec91906112bc565b60405180910390a17ffe826ea67a9f78973559f193d27bef0a395981ca89d1cebd4b7561735bc9b20960405161042190611382565b60405180910390a150565b600160028111156104405761043f61189a565b5b600660149054906101000a900460ff1660028111156104625761046161189a565b5b146104a2576040517f08c379a0000000000000000000000000000000000000000000000000000000008152600401610499906113c2565b60405180910390fd5b6000600660146101000a81548160ff021916908360028111156104c8576104c761189a565b5b02179055507ffe826ea67a9f78973559f193d27bef0a395981ca89d1cebd4b7561735bc9b2096040516104fa906114a2565b60405180910390a1565b6004818154811061051457600080fd5b906000526020600020016000915054906101000a900473ffffffffffffffffffffffffffffffffffffffff1681565b60055481565b7ffe826ea67a9f78973559f193d27bef0a395981ca89d1cebd4b7561735bc9b209604051610576906113e2565b60405180910390a1565b7f000000000000000000000000000000000000000000000000000000000000000073ffffffffffffffffffffffffffffffffffffffff163373ffffffffffffffffffffffffffffffffffffffff161461060e576040517f08c379a000000000000000000000000000000000000000000000000000000000815260040161060590611422565b60405180910390fd5b6106188282610907565b5050565b600660149054906101000a900460ff1681565b600060028111156106435761064261189a565b5b600660149054906101000a900460ff1660028111156106655761066461189a565b5b146106a5576040517f08c379a000000000000000000000000000000000000000000000000000000000815260040161069c90611482565b60405180910390fd5b60326106b034610aae565b10156106f1576040517f08c379a00000000000000000000000000000000000000000000000000000000081526004016106e8906114c2565b60405180910390fd5b6004339080600181540180825580915050600190039060005260206000200160009091909190916101000a81548173ffffffffffffffffffffffffffffffffffffffff021916908373ffffffffffffffffffffffffffffffffffffffff1602179055507f0d02a7228f7445b79385af89ae273e0bfc8babce9fe11b925dc0790593b7f50560405160405180910390a1565b600660009054906101000a900473ffffffffffffffffffffffffffffffffffffffff1681565b60007f000000000000000000000000000000000000000000000000000000000000000073ffffffffffffffffffffffffffffffffffffffff16634000aea07f00000000000000000000000000000000000000000000000000000000000000008486600060405160200161081c9291906112d7565b6040516020818303038152906040526040518463ffffffff1660e01b81526004016108499392919061127e565b602060405180830381600087803b15801561086357600080fd5b505af1158015610877573d6000803e3d6000fd5b505050506040513d601f19601f8201168201806040525081019061089b9190610e98565b5060006108bd8460003060008089815260200190815260200160002054610ae9565b90506001600080868152602001908152602001600020546108de9190611535565b600080868152602001908152602001600020819055506108fe8482610b25565b91505092915050565b60006004805490508261091a919061180b565b9050600481815481106109305761092f6118c9565b5b9060005260206000200160009054906101000a900473ffffffffffffffffffffffffffffffffffffffff16600660006101000a81548173ffffffffffffffffffffffffffffffffffffffff021916908373ffffffffffffffffffffffffffffffffffffffff160217905550600067ffffffffffffffff8111156109b6576109b56118f8565b5b6040519080825280602002602001820160405280156109e45781602001602082028036833780820191505090505b50600490805190602001906109fa929190610d73565b506001600660146101000a81548160ff02191690836002811115610a2157610a2061189a565b5b021790555081600581905550610a6b6040518060400160405280600a81526020017f52616e646f6d6e65737300000000000000000000000000000000000000000000815250610b58565b610a7482610bf1565b7ffe826ea67a9f78973559f193d27bef0a395981ca89d1cebd4b7561735bc9b209604051610aa190611442565b60405180910390a1505050565b600080610ab9610c8a565b90506ec097ce7bc90715b34b9f10000000008382610ad791906116d3565b610ae1919061158b565b915050919050565b600084848484604051602001610b029493929190611300565b6040516020818303038152906040528051906020012060001c9050949350505050565b60008282604051602001610b3a929190611237565b60405160208183030381529060405280519060200120905092915050565b610bee81604051602401610b6c9190611360565b6040516020818303038152906040527f41304fac000000000000000000000000000000000000000000000000000000007bffffffffffffffffffffffffffffffffffffffffffffffffffffffff19166020820180517bffffffffffffffffffffffffffffffffffffffffffffffffffffffff8381831617835250505050610d4a565b50565b610c8781604051602401610c0591906114e2565b6040516020818303038152906040527ff5b1bba9000000000000000000000000000000000000000000000000000000007bffffffffffffffffffffffffffffffffffffffffffffffffffffffff19166020820180517bffffffffffffffffffffffffffffffffffffffffffffffffffffffff8381831617835250505050610d4a565b50565b600080600160009054906101000a900473ffffffffffffffffffffffffffffffffffffffff1673ffffffffffffffffffffffffffffffffffffffff1663feaf968c6040518163ffffffff1660e01b815260040160a06040518083038186803b158015610cf557600080fd5b505afa158015610d09573d6000803e3d6000fd5b505050506040513d601f19601f82011682018060405250810190610d2d9190610f5f565b5050509150506402540be40081610d4491906115bc565b91505090565b60008151905060006a636f6e736f6c652e6c6f679050602083016000808483855afa5050505050565b828054828255906000526020600020908101928215610dec579160200282015b82811115610deb5782518260006101000a81548173ffffffffffffffffffffffffffffffffffffffff021916908373ffffffffffffffffffffffffffffffffffffffff16021790555091602001919060010190610d93565b5b509050610df99190610dfd565b5090565b5b80821115610e16576000816000905550600101610dfe565b5090565b600081519050610e2981611bac565b92915050565b600081359050610e3e81611bc3565b92915050565b600081519050610e5381611bda565b92915050565b600081359050610e6881611bf1565b92915050565b600081519050610e7d81611bf1565b92915050565b600081519050610e9281611c08565b92915050565b600060208284031215610eae57610ead611927565b5b6000610ebc84828501610e1a565b91505092915050565b60008060408385031215610edc57610edb611927565b5b6000610eea85828601610e2f565b9250506020610efb85828601610e59565b9150509250929050565b600060208284031215610f1b57610f1a611927565b5b6000610f2984828501610e59565b91505092915050565b600060208284031215610f4857610f47611927565b5b6000610f5684828501610e6e565b91505092915050565b600080600080600060a08688031215610f7b57610f7a611927565b5b6000610f8988828901610e83565b9550506020610f9a88828901610e44565b9450506040610fab88828901610e6e565b9350506060610fbc88828901610e6e565b9250506080610fcd88828901610e83565b9150509295509295909350565b610fe38161172d565b82525050565b610ff28161174b565b82525050565b6110096110048261174b565b6117f7565b82525050565b600061101a826114fd565b6110248185611513565b93506110348185602086016117c4565b61103d8161192c565b840191505092915050565b611051816117b2565b82525050565b600061106282611508565b61106c8185611524565b935061107c8185602086016117c4565b6110858161192c565b840191505092915050565b600061109d600e83611524565b91506110a88261193d565b602082019050919050565b60006110c0602b83611524565b91506110cb82611966565b604082019050919050565b60006110e3603383611524565b91506110ee826119b5565b604082019050919050565b6000611106600483611524565b915061111182611a04565b602082019050919050565b6000611129601a83611524565b915061113482611a2d565b602082019050919050565b600061114c601f83611524565b915061115782611a56565b602082019050919050565b600061116f600683611524565b915061117a82611a7f565b602082019050919050565b6000611192602783611524565b915061119d82611aa8565b604082019050919050565b60006111b5603283611524565b91506111c082611af7565b604082019050919050565b60006111d8600483611524565b91506111e382611b46565b602082019050919050565b60006111fb601f83611524565b915061120682611b6f565b602082019050919050565b61121a81611792565b82525050565b61123161122c82611792565b611801565b82525050565b60006112438285610ff8565b6020820191506112538284611220565b6020820191508190509392505050565b60006020820190506112786000830184610fda565b92915050565b60006060820190506112936000830186610fda565b6112a06020830185611211565b81810360408301526112b2818461100f565b9050949350505050565b60006020820190506112d16000830184610fe9565b92915050565b60006040820190506112ec6000830185610fe9565b6112f96020830184611211565b9392505050565b60006080820190506113156000830187610fe9565b6113226020830186611211565b61132f6040830185610fda565b61133c6060830184611211565b95945050505050565b600060208201905061135a6000830184611048565b92915050565b6000602082019050818103600083015261137a8184611057565b905092915050565b6000602082019050818103600083015261139b81611090565b9050919050565b600060208201905081810360008301526113bb816110b3565b9050919050565b600060208201905081810360008301526113db816110d6565b9050919050565b600060208201905081810360008301526113fb816110f9565b9050919050565b6000602082019050818103600083015261141b8161111c565b9050919050565b6000602082019050818103600083015261143b8161113f565b9050919050565b6000602082019050818103600083015261145b81611162565b9050919050565b6000602082019050818103600083015261147b81611185565b9050919050565b6000602082019050818103600083015261149b816111a8565b9050919050565b600060208201905081810360008301526114bb816111cb565b9050919050565b600060208201905081810360008301526114db816111ee565b9050919050565b60006020820190506114f76000830184611211565b92915050565b600081519050919050565b600081519050919050565b600082825260208201905092915050565b600082825260208201905092915050565b600061154082611792565b915061154b83611792565b9250827fffffffffffffffffffffffffffffffffffffffffffffffffffffffffffffffff038211156115805761157f61183c565b5b828201905092915050565b600061159682611792565b91506115a183611792565b9250826115b1576115b061186b565b5b828204905092915050565b60006115c782611768565b91506115d283611768565b9250827f7fffffffffffffffffffffffffffffffffffffffffffffffffffffffffffffff04821160008413600084131616156116115761161061183c565b5b817f8000000000000000000000000000000000000000000000000000000000000000058312600084126000841316161561164e5761164d61183c565b5b827f8000000000000000000000000000000000000000000000000000000000000000058212600084136000841216161561168b5761168a61183c565b5b827f7fffffffffffffffffffffffffffffffffffffffffffffffffffffffffffffff05821260008412600084121616156116c8576116c761183c565b5b828202905092915050565b60006116de82611792565b91506116e983611792565b9250817fffffffffffffffffffffffffffffffffffffffffffffffffffffffffffffffff04831182151516156117225761172161183c565b5b828202905092915050565b600061173882611772565b9050919050565b60008115159050919050565b6000819050919050565b600081905061176382611b98565b919050565b6000819050919050565b600073ffffffffffffffffffffffffffffffffffffffff82169050919050565b6000819050919050565b600069ffffffffffffffffffff82169050919050565b60006117bd82611755565b9050919050565b60005b838110156117e25780820151818401526020810190506117c7565b838111156117f1576000848401525b50505050565b6000819050919050565b6000819050919050565b600061181682611792565b915061182183611792565b9250826118315761183061186b565b5b828206905092915050565b7f4e487b7100000000000000000000000000000000000000000000000000000000600052601160045260246000fd5b7f4e487b7100000000000000000000000000000000000000000000000000000000600052601260045260246000fd5b7f4e487b7100000000000000000000000000000000000000000000000000000000600052602160045260246000fd5b7f4e487b7100000000000000000000000000000000000000000000000000000000600052603260045260246000fd5b7f4e487b7100000000000000000000000000000000000000000000000000000000600052604160045260246000fd5b600080fd5b6000601f19601f8301169050919050565b7f5049434b494e475f57494e4e4552000000000000000000000000000000000000600082015250565b7f4e6f7420656e6f756768204c494e4b202d2066696c6c20636f6e74726163742060008201527f7769746820666175636574000000000000000000000000000000000000000000602082015250565b7f4c6f7474657279207374617465206d75737420626520636c6f73656420746f2060008201527f73746172742061206e6577206c6f747465727900000000000000000000000000602082015250565b7f7465737400000000000000000000000000000000000000000000000000000000600082015250565b7f4c6f7474657279206d75737420626520696e2070726f63657373000000000000600082015250565b7f4f6e6c7920565246436f6f7264696e61746f722063616e2066756c66696c6c00600082015250565b7f434c4f5345440000000000000000000000000000000000000000000000000000600082015250565b7f4d7573742068617665207061727469636970616e747320746f207069636b206160008201527f2077696e6e657200000000000000000000000000000000000000000000000000602082015250565b7f43616e277420656e746572206120636c6f736564206c6f74746572792c206c6f60008201527f7474657279206d757374206265206f70656e0000000000000000000000000000602082015250565b7f4f50454e00000000000000000000000000000000000000000000000000000000600082015250565b7f4e65656420746f2073656e6420243530206f72206d6f726520696e2045544800600082015250565b60038110611ba957611ba861189a565b5b50565b611bb58161173f565b8114611bc057600080fd5b50565b611bcc8161174b565b8114611bd757600080fd5b50565b611be381611768565b8114611bee57600080fd5b50565b611bfa81611792565b8114611c0557600080fd5b50565b611c118161179c565b8114611c1c57600080fd5b5056fea26469706673582212208bea0d577867c8a39aeac4d9809f400bb8103a3de74a15aa37da2c7054d5ab9964736f6c63430008070033","linkReferences":{},"deployedLinkReferences":{}}