{"_format":"hh-sol-artifact-1","contractName":"Lottery","sourceName":"contracts/Lottery.sol","abi":[{"inputs":[{"internalType":"address","name":"_priceFeedAddress","type":"address"},{"internalType":"address","name":"_vrfCoordinator","type":"address"},{"internalType":"address","name":"_link","type":"address"},{"internalType":"uint256","name":"_fee","type":"uint256"},{"internalType":"bytes32","name":"_keyhash","type":"bytes32"}],"stateMutability":"nonpayable","type":"constructor"},{"anonymous":false,"inputs":[{"indexed":false,"internalType":"bytes32","name":"requestId","type":"bytes32"}],"name":"PickingWinner","type":"event"},{"inputs":[],"name":"endLottery","outputs":[],"stateMutability":"nonpayable","type":"function"},{"inputs":[],"name":"enterLottery","outputs":[],"stateMutability":"payable","type":"function"},{"inputs":[],"name":"lastWinner","outputs":[{"internalType":"address","name":"","type":"address"}],"stateMutability":"view","type":"function"},{"inputs":[{"internalType":"uint256","name":"","type":"uint256"}],"name":"participants","outputs":[{"internalType":"address","name":"","type":"address"}],"stateMutability":"view","type":"function"},{"inputs":[],"name":"randomResult","outputs":[{"internalType":"uint256","name":"","type":"uint256"}],"stateMutability":"view","type":"function"},{"inputs":[{"internalType":"bytes32","name":"requestId","type":"bytes32"},{"internalType":"uint256","name":"randomness","type":"uint256"}],"name":"rawFulfillRandomness","outputs":[],"stateMutability":"nonpayable","type":"function"},{"inputs":[],"name":"startLottery","outputs":[],"stateMutability":"nonpayable","type":"function"},{"inputs":[],"name":"state","outputs":[{"internalType":"enum Lottery.LOTTERY_STATE","name":"","type":"uint8"}],"stateMutability":"view","type":"function"}],"bytecode":"0x60c06040526001600660146101000a81548160ff021916908360028111156200002d576200002c62000246565b5b02179055503480156200003f57600080fd5b5060405162001ba838038062001ba8833981810160405281019062000065919062000176565b83838173ffffffffffffffffffffffffffffffffffffffff1660a08173ffffffffffffffffffffffffffffffffffffffff1660601b815250508073ffffffffffffffffffffffffffffffffffffffff1660808173ffffffffffffffffffffffffffffffffffffffff1660601b81525050505084600160006101000a81548173ffffffffffffffffffffffffffffffffffffffff021916908373ffffffffffffffffffffffffffffffffffffffff16021790555080600281905550816003819055505050505050620002c8565b60008151905062000142816200027a565b92915050565b600081519050620001598162000294565b92915050565b6000815190506200017081620002ae565b92915050565b600080600080600060a0868803121562000195576200019462000275565b5b6000620001a58882890162000131565b9550506020620001b88882890162000131565b9450506040620001cb8882890162000131565b9350506060620001de888289016200015f565b9250506080620001f18882890162000148565b9150509295509295909350565b60006200020b826200021c565b9050919050565b6000819050919050565b600073ffffffffffffffffffffffffffffffffffffffff82169050919050565b6000819050919050565b7f4e487b7100000000000000000000000000000000000000000000000000000000600052602160045260246000fd5b600080fd5b6200028581620001fe565b81146200029157600080fd5b50565b6200029f8162000212565b8114620002ab57600080fd5b50565b620002b9816200023c565b8114620002c557600080fd5b50565b60805160601c60a05160601c6118a6620003026000396000818161047601526106b00152600081816101ad015261067401526118a66000f3fe60806040526004361061007b5760003560e01c806394985ddd1161004e57806394985ddd14610116578063c19d93fb1461013f578063c1af57851461016a578063fe188184146101745761007b565b80631593a8c714610080578063160344e21461009757806335c1d349146100ae57806342619f66146100eb575b600080fd5b34801561008c57600080fd5b5061009561019f565b005b3480156100a357600080fd5b506100ac61038c565b005b3480156100ba57600080fd5b506100d560048036038101906100d09190610d98565b61042f565b6040516100e29190611047565b60405180910390f35b3480156100f757600080fd5b5061010061046e565b60405161010d9190611226565b60405180910390f35b34801561012257600080fd5b5061013d60048036038101906101389190610d58565b610474565b005b34801561014b57600080fd5b50610154610510565b6040516101619190611129565b60405180910390f35b610172610523565b005b34801561018057600080fd5b5061018961064a565b6040516101969190611047565b60405180910390f35b600354670de0b6b3a76400007f000000000000000000000000000000000000000000000000000000000000000073ffffffffffffffffffffffffffffffffffffffff166370a08231306040518263ffffffff1660e01b81526004016102049190611047565b60206040518083038186803b15801561021c57600080fd5b505afa158015610230573d6000803e3d6000fd5b505050506040513d601f19601f820116820180604052508101906102549190610dc5565b61025e9190611417565b101561029f576040517f08c379a000000000000000000000000000000000000000000000000000000000815260040161029690611166565b60405180910390fd5b600060028111156102b3576102b26115de565b5b600660149054906101000a900460ff1660028111156102d5576102d46115de565b5b14610315576040517f08c379a000000000000000000000000000000000000000000000000000000000815260040161030c906111a6565b60405180910390fd5b6002600660146101000a81548160ff0219169083600281111561033b5761033a6115de565b5b02179055506000610350600254600354610670565b90507f6fd8222bb1a1346eff3df8e6cb95d56d8acc1eb50d1af465f9e1fe6854eb2b7a8160405161038191906110a0565b60405180910390a150565b600160028111156103a05761039f6115de565b5b600660149054906101000a900460ff1660028111156103c2576103c16115de565b5b14610402576040517f08c379a00000000000000000000000000000000000000000000000000000000081526004016103f990611186565b60405180910390fd5b6000600660146101000a81548160ff02191690836002811115610428576104276115de565b5b0217905550565b6004818154811061043f57600080fd5b906000526020600020016000915054906101000a900473ffffffffffffffffffffffffffffffffffffffff1681565b60055481565b7f000000000000000000000000000000000000000000000000000000000000000073ffffffffffffffffffffffffffffffffffffffff163373ffffffffffffffffffffffffffffffffffffffff1614610502576040517f08c379a00000000000000000000000000000000000000000000000000000000081526004016104f9906111c6565b60405180910390fd5b61050c82826107cf565b5050565b600660149054906101000a900460ff1681565b60006002811115610537576105366115de565b5b600660149054906101000a900460ff166002811115610559576105586115de565b5b14610599576040517f08c379a0000000000000000000000000000000000000000000000000000000008152600401610590906111e6565b60405180910390fd5b60326105a434610941565b10156105e5576040517f08c379a00000000000000000000000000000000000000000000000000000000081526004016105dc90611206565b60405180910390fd5b6004339080600181540180825580915050600190039060005260206000200160009091909190916101000a81548173ffffffffffffffffffffffffffffffffffffffff021916908373ffffffffffffffffffffffffffffffffffffffff160217905550565b600660009054906101000a900473ffffffffffffffffffffffffffffffffffffffff1681565b60007f000000000000000000000000000000000000000000000000000000000000000073ffffffffffffffffffffffffffffffffffffffff16634000aea07f0000000000000000000000000000000000000000000000000000000000000000848660006040516020016106e49291906110bb565b6040516020818303038152906040526040518463ffffffff1660e01b815260040161071193929190611062565b602060405180830381600087803b15801561072b57600080fd5b505af115801561073f573d6000803e3d6000fd5b505050506040513d601f19601f820116820180604052508101906107639190610d2b565b506000610785846000306000808981526020019081526020016000205461097c565b90506001600080868152602001908152602001600020546107a69190611279565b600080868152602001908152602001600020819055506107c684826109b8565b91505092915050565b6000600480549050826107e2919061154f565b9050600481815481106107f8576107f761160d565b5b9060005260206000200160009054906101000a900473ffffffffffffffffffffffffffffffffffffffff16600660006101000a81548173ffffffffffffffffffffffffffffffffffffffff021916908373ffffffffffffffffffffffffffffffffffffffff160217905550600067ffffffffffffffff81111561087e5761087d61163c565b5b6040519080825280602002602001820160405280156108ac5781602001602082028036833780820191505090505b50600490805190602001906108c2929190610c06565b506001600660146101000a81548160ff021916908360028111156108e9576108e86115de565b5b0217905550816005819055506109336040518060400160405280600a81526020017f52616e646f6d6e657373000000000000000000000000000000000000000000008152506109eb565b61093c82610a84565b505050565b60008061094c610b1d565b90506ec097ce7bc90715b34b9f1000000000838261096a9190611417565b61097491906112cf565b915050919050565b60008484848460405160200161099594939291906110e4565b6040516020818303038152906040528051906020012060001c9050949350505050565b600082826040516020016109cd92919061101b565b60405160208183030381529060405280519060200120905092915050565b610a81816040516024016109ff9190611144565b6040516020818303038152906040527f41304fac000000000000000000000000000000000000000000000000000000007bffffffffffffffffffffffffffffffffffffffffffffffffffffffff19166020820180517bffffffffffffffffffffffffffffffffffffffffffffffffffffffff8381831617835250505050610bdd565b50565b610b1a81604051602401610a989190611226565b6040516020818303038152906040527ff5b1bba9000000000000000000000000000000000000000000000000000000007bffffffffffffffffffffffffffffffffffffffffffffffffffffffff19166020820180517bffffffffffffffffffffffffffffffffffffffffffffffffffffffff8381831617835250505050610bdd565b50565b600080600160009054906101000a900473ffffffffffffffffffffffffffffffffffffffff1673ffffffffffffffffffffffffffffffffffffffff1663feaf968c6040518163ffffffff1660e01b815260040160a06040518083038186803b158015610b8857600080fd5b505afa158015610b9c573d6000803e3d6000fd5b505050506040513d601f19601f82011682018060405250810190610bc09190610df2565b5050509150506402540be40081610bd79190611300565b91505090565b60008151905060006a636f6e736f6c652e6c6f679050602083016000808483855afa5050505050565b828054828255906000526020600020908101928215610c7f579160200282015b82811115610c7e5782518260006101000a81548173ffffffffffffffffffffffffffffffffffffffff021916908373ffffffffffffffffffffffffffffffffffffffff16021790555091602001919060010190610c26565b5b509050610c8c9190610c90565b5090565b5b80821115610ca9576000816000905550600101610c91565b5090565b600081519050610cbc816117fd565b92915050565b600081359050610cd181611814565b92915050565b600081519050610ce68161182b565b92915050565b600081359050610cfb81611842565b92915050565b600081519050610d1081611842565b92915050565b600081519050610d2581611859565b92915050565b600060208284031215610d4157610d4061166b565b5b6000610d4f84828501610cad565b91505092915050565b60008060408385031215610d6f57610d6e61166b565b5b6000610d7d85828601610cc2565b9250506020610d8e85828601610cec565b9150509250929050565b600060208284031215610dae57610dad61166b565b5b6000610dbc84828501610cec565b91505092915050565b600060208284031215610ddb57610dda61166b565b5b6000610de984828501610d01565b91505092915050565b600080600080600060a08688031215610e0e57610e0d61166b565b5b6000610e1c88828901610d16565b9550506020610e2d88828901610cd7565b9450506040610e3e88828901610d01565b9350506060610e4f88828901610d01565b9250506080610e6088828901610d16565b9150509295509295909350565b610e7681611471565b82525050565b610e858161148f565b82525050565b610e9c610e978261148f565b61153b565b82525050565b6000610ead82611241565b610eb78185611257565b9350610ec7818560208601611508565b610ed081611670565b840191505092915050565b610ee4816114f6565b82525050565b6000610ef58261124c565b610eff8185611268565b9350610f0f818560208601611508565b610f1881611670565b840191505092915050565b6000610f30602b83611268565b9150610f3b82611681565b604082019050919050565b6000610f53603383611268565b9150610f5e826116d0565b604082019050919050565b6000610f76601a83611268565b9150610f818261171f565b602082019050919050565b6000610f99601f83611268565b9150610fa482611748565b602082019050919050565b6000610fbc603283611268565b9150610fc782611771565b604082019050919050565b6000610fdf601f83611268565b9150610fea826117c0565b602082019050919050565b610ffe816114d6565b82525050565b611015611010826114d6565b611545565b82525050565b60006110278285610e8b565b6020820191506110378284611004565b6020820191508190509392505050565b600060208201905061105c6000830184610e6d565b92915050565b60006060820190506110776000830186610e6d565b6110846020830185610ff5565b81810360408301526110968184610ea2565b9050949350505050565b60006020820190506110b56000830184610e7c565b92915050565b60006040820190506110d06000830185610e7c565b6110dd6020830184610ff5565b9392505050565b60006080820190506110f96000830187610e7c565b6111066020830186610ff5565b6111136040830185610e6d565b6111206060830184610ff5565b95945050505050565b600060208201905061113e6000830184610edb565b92915050565b6000602082019050818103600083015261115e8184610eea565b905092915050565b6000602082019050818103600083015261117f81610f23565b9050919050565b6000602082019050818103600083015261119f81610f46565b9050919050565b600060208201905081810360008301526111bf81610f69565b9050919050565b600060208201905081810360008301526111df81610f8c565b9050919050565b600060208201905081810360008301526111ff81610faf565b9050919050565b6000602082019050818103600083015261121f81610fd2565b9050919050565b600060208201905061123b6000830184610ff5565b92915050565b600081519050919050565b600081519050919050565b600082825260208201905092915050565b600082825260208201905092915050565b6000611284826114d6565b915061128f836114d6565b9250827fffffffffffffffffffffffffffffffffffffffffffffffffffffffffffffffff038211156112c4576112c3611580565b5b828201905092915050565b60006112da826114d6565b91506112e5836114d6565b9250826112f5576112f46115af565b5b828204905092915050565b600061130b826114ac565b9150611316836114ac565b9250827f7fffffffffffffffffffffffffffffffffffffffffffffffffffffffffffffff048211600084136000841316161561135557611354611580565b5b817f8000000000000000000000000000000000000000000000000000000000000000058312600084126000841316161561139257611391611580565b5b827f800000000000000000000000000000000000000000000000000000000000000005821260008413600084121616156113cf576113ce611580565b5b827f7fffffffffffffffffffffffffffffffffffffffffffffffffffffffffffffff058212600084126000841216161561140c5761140b611580565b5b828202905092915050565b6000611422826114d6565b915061142d836114d6565b9250817fffffffffffffffffffffffffffffffffffffffffffffffffffffffffffffffff048311821515161561146657611465611580565b5b828202905092915050565b600061147c826114b6565b9050919050565b60008115159050919050565b6000819050919050565b60008190506114a7826117e9565b919050565b6000819050919050565b600073ffffffffffffffffffffffffffffffffffffffff82169050919050565b6000819050919050565b600069ffffffffffffffffffff82169050919050565b600061150182611499565b9050919050565b60005b8381101561152657808201518184015260208101905061150b565b83811115611535576000848401525b50505050565b6000819050919050565b6000819050919050565b600061155a826114d6565b9150611565836114d6565b925082611575576115746115af565b5b828206905092915050565b7f4e487b7100000000000000000000000000000000000000000000000000000000600052601160045260246000fd5b7f4e487b7100000000000000000000000000000000000000000000000000000000600052601260045260246000fd5b7f4e487b7100000000000000000000000000000000000000000000000000000000600052602160045260246000fd5b7f4e487b7100000000000000000000000000000000000000000000000000000000600052603260045260246000fd5b7f4e487b7100000000000000000000000000000000000000000000000000000000600052604160045260246000fd5b600080fd5b6000601f19601f8301169050919050565b7f4e6f7420656e6f756768204c494e4b202d2066696c6c20636f6e74726163742060008201527f7769746820666175636574000000000000000000000000000000000000000000602082015250565b7f4c6f7474657279207374617465206d75737420626520636c6f73656420746f2060008201527f73746172742061206e6577206c6f747465727900000000000000000000000000602082015250565b7f4c6f7474657279206d75737420626520696e2070726f63657373000000000000600082015250565b7f4f6e6c7920565246436f6f7264696e61746f722063616e2066756c66696c6c00600082015250565b7f43616e277420656e746572206120636c6f736564206c6f74746572792c206c6f60008201527f7474657279206d757374206265206f70656e0000000000000000000000000000602082015250565b7f4e65656420746f2073656e6420243530206f72206d6f726520696e2045544800600082015250565b600381106117fa576117f96115de565b5b50565b61180681611483565b811461181157600080fd5b50565b61181d8161148f565b811461182857600080fd5b50565b611834816114ac565b811461183f57600080fd5b50565b61184b816114d6565b811461185657600080fd5b50565b611862816114e0565b811461186d57600080fd5b5056fea2646970667358221220f0588adaad1df63620963a39adc30c010127f1188b833cbc84598b484cb944d864736f6c63430008070033","linkReferences":{},"deployedLinkReferences":{}}