{"_format":"hh-sol-artifact-1","contractName":"Lottery","sourceName":"contracts/Lottery.sol","abi":[{"inputs":[{"internalType":"address","name":"_priceFeedAddress","type":"address"},{"internalType":"address","name":"_vrfCoordinator","type":"address"},{"internalType":"address","name":"_link","type":"address"},{"internalType":"uint256","name":"_fee","type":"uint256"},{"internalType":"bytes32","name":"_keyhash","type":"bytes32"}],"stateMutability":"nonpayable","type":"constructor"},{"anonymous":false,"inputs":[{"indexed":false,"internalType":"bytes32","name":"requestId","type":"bytes32"}],"name":"PickingWinner","type":"event"},{"anonymous":false,"inputs":[{"indexed":false,"internalType":"uint256","name":"playerCount","type":"uint256"}],"name":"PlayerEntered","type":"event"},{"anonymous":false,"inputs":[{"indexed":false,"internalType":"string","name":"state","type":"string"}],"name":"StateChange","type":"event"},{"inputs":[],"name":"endLottery","outputs":[],"stateMutability":"nonpayable","type":"function"},{"inputs":[],"name":"enterLottery","outputs":[],"stateMutability":"payable","type":"function"},{"inputs":[],"name":"getParticipantsLength","outputs":[{"internalType":"uint256","name":"","type":"uint256"}],"stateMutability":"view","type":"function"},{"inputs":[],"name":"lastWinnerData","outputs":[{"internalType":"address payable","name":"lastWinner","type":"address"},{"internalType":"uint256","name":"etherWonByLastWinner","type":"uint256"},{"internalType":"uint256","name":"playersInLastLottery","type":"uint256"}],"stateMutability":"view","type":"function"},{"inputs":[],"name":"owner","outputs":[{"internalType":"address","name":"","type":"address"}],"stateMutability":"view","type":"function"},{"inputs":[{"internalType":"uint256","name":"","type":"uint256"}],"name":"participants","outputs":[{"internalType":"address payable","name":"","type":"address"}],"stateMutability":"view","type":"function"},{"inputs":[],"name":"randomResult","outputs":[{"internalType":"uint256","name":"","type":"uint256"}],"stateMutability":"view","type":"function"},{"inputs":[{"internalType":"bytes32","name":"requestId","type":"bytes32"},{"internalType":"uint256","name":"randomness","type":"uint256"}],"name":"rawFulfillRandomness","outputs":[],"stateMutability":"nonpayable","type":"function"},{"inputs":[],"name":"startLottery","outputs":[],"stateMutability":"nonpayable","type":"function"},{"inputs":[],"name":"state","outputs":[{"internalType":"enum Lottery.LOTTERY_STATE","name":"","type":"uint8"}],"stateMutability":"view","type":"function"}],"bytecode":"0x60c06040526001600960146101000a81548160ff021916908360028111156200002d576200002c62000287565b5b02179055503480156200003f57600080fd5b506040516200208d3803806200208d8339818101604052810190620000659190620001b7565b83838173ffffffffffffffffffffffffffffffffffffffff1660a08173ffffffffffffffffffffffffffffffffffffffff1660601b815250508073ffffffffffffffffffffffffffffffffffffffff1660808173ffffffffffffffffffffffffffffffffffffffff1660601b81525050505084600160006101000a81548173ffffffffffffffffffffffffffffffffffffffff021916908373ffffffffffffffffffffffffffffffffffffffff160217905550806002819055508160038190555033600960006101000a81548173ffffffffffffffffffffffffffffffffffffffff021916908373ffffffffffffffffffffffffffffffffffffffff160217905550505050505062000309565b6000815190506200018381620002bb565b92915050565b6000815190506200019a81620002d5565b92915050565b600081519050620001b181620002ef565b92915050565b600080600080600060a08688031215620001d657620001d5620002b6565b5b6000620001e68882890162000172565b9550506020620001f98882890162000172565b94505060406200020c8882890162000172565b93505060606200021f88828901620001a0565b9250506080620002328882890162000189565b9150509295509295909350565b60006200024c826200025d565b9050919050565b6000819050919050565b600073ffffffffffffffffffffffffffffffffffffffff82169050919050565b6000819050919050565b7f4e487b7100000000000000000000000000000000000000000000000000000000600052602160045260246000fd5b600080fd5b620002c6816200023f565b8114620002d257600080fd5b50565b620002e08162000253565b8114620002ec57600080fd5b50565b620002fa816200027d565b81146200030657600080fd5b50565b60805160601c60a05160601c611d4a620003436000396000818161072201526109720152600081816102ab01526109360152611d4a6000f3fe6080604052600436106100915760003560e01c8063808a242b11610059578063808a242b146101575780638da5cb5b1461018457806394985ddd146101af578063c19d93fb146101d8578063c1af57851461020357610091565b80631593a8c714610096578063160344e2146100ad57806335c1d349146100c457806342619f661461010157806376ab5af61461012c575b600080fd5b3480156100a257600080fd5b506100ab61020d565b005b3480156100b957600080fd5b506100c2610508565b005b3480156100d057600080fd5b506100eb60048036038101906100e69190610fc7565b610670565b6040516100f89190611316565b60405180910390f35b34801561010d57600080fd5b506101166106af565b60405161012391906115aa565b60405180910390f35b34801561013857600080fd5b506101416106b5565b60405161014e91906115aa565b60405180910390f35b34801561016357600080fd5b5061016c6106c2565b60405161017b93929190611331565b60405180910390f35b34801561019057600080fd5b506101996106fa565b6040516101a691906112fb565b60405180910390f35b3480156101bb57600080fd5b506101d660048036038101906101d19190610f87565b610720565b005b3480156101e457600080fd5b506101ed6107bc565b6040516101fa919061142f565b60405180910390f35b61020b6107cf565b005b600960009054906101000a900473ffffffffffffffffffffffffffffffffffffffff1673ffffffffffffffffffffffffffffffffffffffff163373ffffffffffffffffffffffffffffffffffffffff161461029d576040517f08c379a00000000000000000000000000000000000000000000000000000000081526004016102949061148a565b60405180910390fd5b600354670de0b6b3a76400007f000000000000000000000000000000000000000000000000000000000000000073ffffffffffffffffffffffffffffffffffffffff166370a08231306040518263ffffffff1660e01b815260040161030291906112fb565b60206040518083038186803b15801561031a57600080fd5b505afa15801561032e573d6000803e3d6000fd5b505050506040513d601f19601f820116820180604052508101906103529190610ff4565b61035c9190611790565b101561039d576040517f08c379a00000000000000000000000000000000000000000000000000000000081526004016103949061146a565b60405180910390fd5b600060028111156103b1576103b0611969565b5b600960149054906101000a900460ff1660028111156103d3576103d2611969565b5b14610413576040517f08c379a000000000000000000000000000000000000000000000000000000000815260040161040a906114ca565b60405180910390fd5b6000600480549050141561045c576040517f08c379a00000000000000000000000000000000000000000000000000000000081526004016104539061152a565b60405180910390fd5b6002600960146101000a81548160ff0219169083600281111561048257610481611969565b5b02179055506000610497600254600354610932565b90507f6fd8222bb1a1346eff3df8e6cb95d56d8acc1eb50d1af465f9e1fe6854eb2b7a816040516104c891906113a6565b60405180910390a17ffe826ea67a9f78973559f193d27bef0a395981ca89d1cebd4b7561735bc9b2096040516104fd9061144a565b60405180910390a150565b600960009054906101000a900473ffffffffffffffffffffffffffffffffffffffff1673ffffffffffffffffffffffffffffffffffffffff163373ffffffffffffffffffffffffffffffffffffffff1614610598576040517f08c379a000000000000000000000000000000000000000000000000000000000815260040161058f9061148a565b60405180910390fd5b600160028111156105ac576105ab611969565b5b600960149054906101000a900460ff1660028111156105ce576105cd611969565b5b1461060e576040517f08c379a0000000000000000000000000000000000000000000000000000000008152600401610605906114aa565b60405180910390fd5b6000600960146101000a81548160ff0219169083600281111561063457610633611969565b5b02179055507ffe826ea67a9f78973559f193d27bef0a395981ca89d1cebd4b7561735bc9b2096040516106669061156a565b60405180910390a1565b6004818154811061068057600080fd5b906000526020600020016000915054906101000a900473ffffffffffffffffffffffffffffffffffffffff1681565b60055481565b6000600480549050905090565b60068060000160009054906101000a900473ffffffffffffffffffffffffffffffffffffffff16908060010154908060020154905083565b600960009054906101000a900473ffffffffffffffffffffffffffffffffffffffff1681565b7f000000000000000000000000000000000000000000000000000000000000000073ffffffffffffffffffffffffffffffffffffffff163373ffffffffffffffffffffffffffffffffffffffff16146107ae576040517f08c379a00000000000000000000000000000000000000000000000000000000081526004016107a5906114ea565b60405180910390fd5b6107b88282610a91565b5050565b600960149054906101000a900460ff1681565b600060028111156107e3576107e2611969565b5b600960149054906101000a900460ff16600281111561080557610804611969565b5b14610845576040517f08c379a000000000000000000000000000000000000000000000000000000000815260040161083c9061154a565b60405180910390fd5b603261085034610ccb565b1015610891576040517f08c379a00000000000000000000000000000000000000000000000000000000081526004016108889061158a565b60405180910390fd5b6004339080600181540180825580915050600190039060005260206000200160009091909190916101000a81548173ffffffffffffffffffffffffffffffffffffffff021916908373ffffffffffffffffffffffffffffffffffffffff1602179055507f8d2fadce8f12cf4b8f0f407983d7c2c84aa1068c25c8f4fe07840cd1b55de9e560048054905060405161092891906115aa565b60405180910390a1565b60007f000000000000000000000000000000000000000000000000000000000000000073ffffffffffffffffffffffffffffffffffffffff16634000aea07f0000000000000000000000000000000000000000000000000000000000000000848660006040516020016109a69291906113c1565b6040516020818303038152906040526040518463ffffffff1660e01b81526004016109d393929190611368565b602060405180830381600087803b1580156109ed57600080fd5b505af1158015610a01573d6000803e3d6000fd5b505050506040513d601f19601f82011682018060405250810190610a259190610f5a565b506000610a478460003060008089815260200190815260200160002054610d06565b9050600160008086815260200190815260200160002054610a6891906115f2565b60008086815260200190815260200160002081905550610a888482610d42565b91505092915050565b600060048054905082610aa491906118da565b9050604051806060016040528060048381548110610ac557610ac4611998565b5b9060005260206000200160009054906101000a900473ffffffffffffffffffffffffffffffffffffffff1673ffffffffffffffffffffffffffffffffffffffff168152602001478152602001600480549050815250600660008201518160000160006101000a81548173ffffffffffffffffffffffffffffffffffffffff021916908373ffffffffffffffffffffffffffffffffffffffff160217905550602082015181600101556040820151816002015590505060048181548110610b8e57610b8d611998565b5b9060005260206000200160009054906101000a900473ffffffffffffffffffffffffffffffffffffffff1673ffffffffffffffffffffffffffffffffffffffff166108fc479081150290604051600060405180830381858888f19350505050158015610bfe573d6000803e3d6000fd5b50600067ffffffffffffffff811115610c1a57610c196119c7565b5b604051908082528060200260200182016040528015610c485781602001602082028036833780820191505090505b5060049080519060200190610c5e929190610e35565b506001600960146101000a81548160ff02191690836002811115610c8557610c84611969565b5b0217905550816005819055507ffe826ea67a9f78973559f193d27bef0a395981ca89d1cebd4b7561735bc9b209604051610cbe9061150a565b60405180910390a1505050565b600080610cd6610d75565b90506ec097ce7bc90715b34b9f10000000008382610cf49190611790565b610cfe9190611648565b915050919050565b600084848484604051602001610d1f94939291906113ea565b6040516020818303038152906040528051906020012060001c9050949350505050565b60008282604051602001610d579291906112cf565b60405160208183030381529060405280519060200120905092915050565b600080600160009054906101000a900473ffffffffffffffffffffffffffffffffffffffff1673ffffffffffffffffffffffffffffffffffffffff1663feaf968c6040518163ffffffff1660e01b815260040160a06040518083038186803b158015610de057600080fd5b505afa158015610df4573d6000803e3d6000fd5b505050506040513d601f19601f82011682018060405250810190610e189190611021565b5050509150506402540be40081610e2f9190611679565b91505090565b828054828255906000526020600020908101928215610eae579160200282015b82811115610ead5782518260006101000a81548173ffffffffffffffffffffffffffffffffffffffff021916908373ffffffffffffffffffffffffffffffffffffffff16021790555091602001919060010190610e55565b5b509050610ebb9190610ebf565b5090565b5b80821115610ed8576000816000905550600101610ec0565b5090565b600081519050610eeb81611ca1565b92915050565b600081359050610f0081611cb8565b92915050565b600081519050610f1581611ccf565b92915050565b600081359050610f2a81611ce6565b92915050565b600081519050610f3f81611ce6565b92915050565b600081519050610f5481611cfd565b92915050565b600060208284031215610f7057610f6f6119f6565b5b6000610f7e84828501610edc565b91505092915050565b60008060408385031215610f9e57610f9d6119f6565b5b6000610fac85828601610ef1565b9250506020610fbd85828601610f1b565b9150509250929050565b600060208284031215610fdd57610fdc6119f6565b5b6000610feb84828501610f1b565b91505092915050565b60006020828403121561100a576110096119f6565b5b600061101884828501610f30565b91505092915050565b600080600080600060a0868803121561103d5761103c6119f6565b5b600061104b88828901610f45565b955050602061105c88828901610f06565b945050604061106d88828901610f30565b935050606061107e88828901610f30565b925050608061108f88828901610f45565b9150509295509295909350565b6110a5816117fc565b82525050565b6110b4816117ea565b82525050565b6110c38161181a565b82525050565b6110da6110d58261181a565b6118c6565b82525050565b60006110eb826115c5565b6110f581856115d0565b9350611105818560208601611893565b61110e816119fb565b840191505092915050565b61112281611881565b82525050565b6000611135600e836115e1565b915061114082611a0c565b602082019050919050565b6000611158602b836115e1565b915061116382611a35565b604082019050919050565b600061117b602b836115e1565b915061118682611a84565b604082019050919050565b600061119e6033836115e1565b91506111a982611ad3565b604082019050919050565b60006111c1601a836115e1565b91506111cc82611b22565b602082019050919050565b60006111e4601f836115e1565b91506111ef82611b4b565b602082019050919050565b60006112076006836115e1565b915061121282611b74565b602082019050919050565b600061122a6027836115e1565b915061123582611b9d565b604082019050919050565b600061124d6032836115e1565b915061125882611bec565b604082019050919050565b60006112706004836115e1565b915061127b82611c3b565b602082019050919050565b6000611293601f836115e1565b915061129e82611c64565b602082019050919050565b6112b281611861565b82525050565b6112c96112c482611861565b6118d0565b82525050565b60006112db82856110c9565b6020820191506112eb82846112b8565b6020820191508190509392505050565b600060208201905061131060008301846110ab565b92915050565b600060208201905061132b600083018461109c565b92915050565b6000606082019050611346600083018661109c565b61135360208301856112a9565b61136060408301846112a9565b949350505050565b600060608201905061137d60008301866110ab565b61138a60208301856112a9565b818103604083015261139c81846110e0565b9050949350505050565b60006020820190506113bb60008301846110ba565b92915050565b60006040820190506113d660008301856110ba565b6113e360208301846112a9565b9392505050565b60006080820190506113ff60008301876110ba565b61140c60208301866112a9565b61141960408301856110ab565b61142660608301846112a9565b95945050505050565b60006020820190506114446000830184611119565b92915050565b6000602082019050818103600083015261146381611128565b9050919050565b600060208201905081810360008301526114838161114b565b9050919050565b600060208201905081810360008301526114a38161116e565b9050919050565b600060208201905081810360008301526114c381611191565b9050919050565b600060208201905081810360008301526114e3816111b4565b9050919050565b60006020820190508181036000830152611503816111d7565b9050919050565b60006020820190508181036000830152611523816111fa565b9050919050565b600060208201905081810360008301526115438161121d565b9050919050565b6000602082019050818103600083015261156381611240565b9050919050565b6000602082019050818103600083015261158381611263565b9050919050565b600060208201905081810360008301526115a381611286565b9050919050565b60006020820190506115bf60008301846112a9565b92915050565b600081519050919050565b600082825260208201905092915050565b600082825260208201905092915050565b60006115fd82611861565b915061160883611861565b9250827fffffffffffffffffffffffffffffffffffffffffffffffffffffffffffffffff0382111561163d5761163c61190b565b5b828201905092915050565b600061165382611861565b915061165e83611861565b92508261166e5761166d61193a565b5b828204905092915050565b600061168482611837565b915061168f83611837565b9250827f7fffffffffffffffffffffffffffffffffffffffffffffffffffffffffffffff04821160008413600084131616156116ce576116cd61190b565b5b817f8000000000000000000000000000000000000000000000000000000000000000058312600084126000841316161561170b5761170a61190b565b5b827f800000000000000000000000000000000000000000000000000000000000000005821260008413600084121616156117485761174761190b565b5b827f7fffffffffffffffffffffffffffffffffffffffffffffffffffffffffffffff05821260008412600084121616156117855761178461190b565b5b828202905092915050565b600061179b82611861565b91506117a683611861565b9250817fffffffffffffffffffffffffffffffffffffffffffffffffffffffffffffffff04831182151516156117df576117de61190b565b5b828202905092915050565b60006117f582611841565b9050919050565b600061180782611841565b9050919050565b60008115159050919050565b6000819050919050565b600081905061183282611c8d565b919050565b6000819050919050565b600073ffffffffffffffffffffffffffffffffffffffff82169050919050565b6000819050919050565b600069ffffffffffffffffffff82169050919050565b600061188c82611824565b9050919050565b60005b838110156118b1578082015181840152602081019050611896565b838111156118c0576000848401525b50505050565b6000819050919050565b6000819050919050565b60006118e582611861565b91506118f083611861565b925082611900576118ff61193a565b5b828206905092915050565b7f4e487b7100000000000000000000000000000000000000000000000000000000600052601160045260246000fd5b7f4e487b7100000000000000000000000000000000000000000000000000000000600052601260045260246000fd5b7f4e487b7100000000000000000000000000000000000000000000000000000000600052602160045260246000fd5b7f4e487b7100000000000000000000000000000000000000000000000000000000600052603260045260246000fd5b7f4e487b7100000000000000000000000000000000000000000000000000000000600052604160045260246000fd5b600080fd5b6000601f19601f8301169050919050565b7f5049434b494e475f57494e4e4552000000000000000000000000000000000000600082015250565b7f4e6f7420656e6f756768204c494e4b202d2066696c6c20636f6e74726163742060008201527f7769746820666175636574000000000000000000000000000000000000000000602082015250565b7f596f75206d75737420626520746865206f776e657220746f2063616c6c20746860008201527f69732066756e6374696f6e000000000000000000000000000000000000000000602082015250565b7f4c6f7474657279207374617465206d75737420626520636c6f73656420746f2060008201527f73746172742061206e6577206c6f747465727900000000000000000000000000602082015250565b7f4c6f7474657279206d75737420626520696e2070726f63657373000000000000600082015250565b7f4f6e6c7920565246436f6f7264696e61746f722063616e2066756c66696c6c00600082015250565b7f434c4f5345440000000000000000000000000000000000000000000000000000600082015250565b7f4d7573742068617665207061727469636970616e747320746f207069636b206160008201527f2077696e6e657200000000000000000000000000000000000000000000000000602082015250565b7f43616e277420656e746572206120636c6f736564206c6f74746572792c206c6f60008201527f7474657279206d757374206265206f70656e0000000000000000000000000000602082015250565b7f4f50454e00000000000000000000000000000000000000000000000000000000600082015250565b7f4e65656420746f2073656e6420243530206f72206d6f726520696e2045544800600082015250565b60038110611c9e57611c9d611969565b5b50565b611caa8161180e565b8114611cb557600080fd5b50565b611cc18161181a565b8114611ccc57600080fd5b50565b611cd881611837565b8114611ce357600080fd5b50565b611cef81611861565b8114611cfa57600080fd5b50565b611d068161186b565b8114611d1157600080fd5b5056fea26469706673582212201c17532471db8d608a500831692cfe5f42999599f3cce2cf0717a8575cf9c2a464736f6c63430008070033","linkReferences":{},"deployedLinkReferences":{}}